:020000040800F2
:10000000A0040020E1020008E139000815380008CA
:10001000AD39000841090008194E00080000000031
:10002000000000000000000000000000253C000867
:10003000610B000800000000E3390008953E00084D
:10004000FB020008FB020008FB020008FB0200089C
:10005000FB020008FB020008FB020008FB0200088C
:10006000FB020008FB020008FB020008FB0200087C
:10007000FB020008FB020008FB020008FB0200086C
:10008000FB020008FB020008FB020008FB0200085C
:10009000FB020008FB020008FB020008FB0200084C
:1000A000FB020008FB020008FB020008FB0200083C
:1000B000FB020008ED3F0008FB020008FB020008FD
:1000C000FB020008FB020008FB020008FB0200081C
:1000D000FB020008BD4D0008C94D0008D54D0008C1
:1000E000FB020008FB02000800000000FB02000801
:1000F000FB020008FB020008FB020008FB020008EC
:10010000FB020008FB020008FB020008FB020008DB
:10011000FB020008FB020008FB020008FB020008CB
:10012000FB020008FB020008FB020008FB020008BB
:10013000FB020008FB020008FB020008FB020008AB
:1001400000000000000000000000000000000000AF
:10015000FB020008FB020008FB020008E14D00085A
:10016000FB020008FB020008FB020008FB0200087B
:10017000FB020008FB020008FB0200080000000070
:10018000FB020008FB020008FB020008FB0200085B
:10019000FB020008FB020008FB020008FB0200084B
:1001A000FB020008FB020008FB0200080000000040
:1001B000FB020008FB020008FB020008FB0200082B
:1001C000FB020008FB020008000000000000000025
:1001D0000000000000000000FB020008000000001A
:1001E000000000000000000000000000000000000F
:1001F0000000000000000000FB020008FB020008F5
:10020000FB020008FB02000800000000FB020008DF
:10021000FB020008FB020008FB020008FB020008CA
:10022000FB02000800000000FB02000800000000C4
:10023000FB020008FB02000800000000FB020008AF
:10024000FB020008FB020008FB020008FB0200089A
:10025000FB020008FB020008FB020008FB0200088A
:10026000FB020008FB020008FB020008FB0200087A
:10027000FB020008FB020008FB020008000000006F
:10028000FB020008FB020008FB020008FB0200085A
:1002900000000000FB020008FB0200080000000054
:1002A00000000000FB020008FB020008FB0200083F
:1002B000FB020008FB020008FB020008FB0200082A
:1002C000FB020008FB020008FB020008DFF80CD06C
:1002D00000F05AFA00480047D55D0008A00400204D
:1002E0000648804706480047FEE7FEE7FEE7FEE7D0
:1002F000FEE7FEE7FEE7FEE7FEE7FEE72D3F00082C
:10030000CD0200082DE9F05F0546002092469B468D
:1003100088460646814640241BE02846414647461B
:10032000224600F069F853465A46C01A914110D34C
:1003300011461846224600F050F82D1A67EB0108C6
:100340004F4622460120002100F047F817EB000934
:100350004E41201EA4F10104DFDC484631462A4606
:100360004346BDE8F09F40EA01039B0703D009E044
:1003700008C9121F08C0042AFAD203E011F8013B91
:1003800000F8013B521EF9D27047D2B201E000F8EA
:10039000012B491EFBD270470022F6E710B5134629
:1003A0000A4604461946FFF7F0FF204610BD30B557
:1003B0000B46014600202022012409E021FA02F523
:1003C0009D4205D303FA02F5491B04FA02F52844BD
:1003D000151EA2F10102F1DC30BD202A04DB203A17
:1003E00000FA02F1002070479140C2F1200320FA88
:1003F00003F3194390407047202A04DB203A21FA86
:1004000002F00021704721FA02F3D040C2F120022D
:1004100091400843194670472DE9FE4F804681EA16
:100420000300C00F0C46009021F0004123F000456E
:10043000B8EB0200A94105D24046214690461C4631
:100440000B46024623F00040104347D0270DC7F368
:100450000A00C3F30A510290401A019040286BDA57
:10046000C3F3130040F4801B0098924620B1002390
:10047000D2EB030A63EB0B0B01985946C0F1400223
:100480005046FFF7AAFF06460D4650465946019AC8
:1004900000F08CF910EB08006141002487EA11524A
:1004A00084EAE7731A4340D0009A62B3019A012AA2
:1004B0004FEA075215DC001B61EB02014FF00042CE
:1004C00002EA0752CDE90042001C41F58011324694
:1004D0002B4600F08CF903B0BDE8F08F4046214672
:1004E000F9E7001B61EB0201001C41F580130018C5
:1004F0005B412018A2F5001747EB030140EAD570D5
:10050000B6196D4111E06D084FEA360645EAC0752F
:100510004FEA0752001B61EB0201001C41F58011FC
:1005200049084FEA30000019514132462B4603B0CA
:10053000BDE8F04F00F04CB90098012240000023C4
:10054000D0EB020263EBE073009821464FEAE074BF
:10055000B8EB000061EB0401E9E783F000435BE7DF
:1005600081F0004158E72DE9FE4F81EA030404F0D1
:10057000004421F0004100944FF0000B23F00043B1
:1005800050EA01045ED052EA03045BD0C3F30A547C
:10059000C1F30A552C44A4F2F3340194A0FB025495
:1005A000C1F3130141F48011C3F3130343F4801327
:1005B00001FB024400FB034E840A970A44EA81547B
:1005C00047EA8357A4FB076802958D0A05FB078558
:1005D0004FEA932C04FB0C542705029D4FEA065862
:1005E00047EA1637B5EB08056EEB070C870E920E3F
:1005F00047EA811742EA8312A7FB0201B6EB0B011F
:1006000064EB00042B0D43EA0C335E1844EB1C50E2
:10061000DA465146E7FB0201C5F313044FEA0B33F8
:1006200043EA14534FEA0432019C43EA0603A4F15F
:100630000C040294009CCDE900B400F0D8F803B09B
:10064000BDE8F08F00200146F9E72DE9F04D81EA81
:10065000030404F0004B21F0004514464FF0000A5B
:1006600023F0004150EA050220D054EA01021DD0D7
:10067000C5F30A570246C5F31303C1F31300C1F3D0
:100680000A5640F4801543F48013A7EB0608101BAC
:10069000D64608F2FD3873EB050002D308F10108D5
:1006A00001E092185B41B8F1000F03DA0020014627
:1006B000BDE8F08D00204FF48011064684460EE020
:1006C000171B73EB050705D3121B63EB05030643EA
:1006D0004CEA010C49084FEA300092185B4150EA9D
:1006E0000107EDD152EA030012D082EA040083EA46
:1006F0000501084305D0101BAB4106D2012200239F
:1007000006E000224FF0004302E06FF001025310B8
:100710001AEB06004CEB085110EB0A0041EB0B0101
:10072000BDE8F04D00F054B8C1F30A52C1F3130113
:1007300040F2FF3341F480119A4202DA0020014670
:10074000704740F233439A42A2F2334202DC5242F3
:10075000FFF752BEFFF741BE30B5041E71F1000431
:1007600004DB4FF00044404264EB0101141E73F1BE
:10077000000405DB1C464FF00043524263EB0403C8
:10078000994208BF904230BD064C074D06E0E06834
:1007900040F0010394E8070098471034AC42F6D3C8
:1007A000FFF798FDCC6300080C640008202A06DBE4
:1007B000CB17203A41FA02F043EAE07306E041FA2F
:1007C00002F3D040C2F1200291400843194670471D
:1007D00010B5141E73F1000408DA401C41F1000149
:1007E00092185B411A4301D120F0010010BD2DE9A0
:1007F000F04D92469B4611B1B1FA81F202E0B0FA97
:1008000080F220329046FFF7E8FD04460F4640EAAA
:100810000A0041EA0B0153465A46084313D01146D9
:1008200053EA010019D0C8F140025046FFF7E4FD39
:1008300005460E46504659464246FFF7CEFD084350
:1008400005D0012004E020463946BDE8F08D0020A7
:10085000054346EAE0762C4337430A986305E40AE9
:10086000A0EB08000022FD0A44EA47540A3002D5F2
:1008700000200146E9E7010510196941DDE9084555
:1008800000196941BDE8F04DA2E700002DE9F041F3
:10089000DFF854800027154E5FF0010458F824005B
:1008A00004F0BCFA0225F7700321342004F010FB99
:1008B000642000F06BFCF07840B158F824100CA0D4
:1008C00004F0DCFDBDE8F04103F0D6B96D1EEAD1BD
:1008D000641C0A2CE2DB0CA004F0D0FDBDE8F04162
:1008E0000FA004F0CBBD0000B85F0008000000249A
:1008F000256420626175642066696E642073656E8C
:10090000736F720D0A0D0A0063616E206E6F7420A2
:1009100066696E642073656E736F720D0A00000065
:10092000706C6561736520636865636B20796F75B2
:100930007220636F6E6E656374696F6E0D0A0000DE
:10094000FEE7884203DB904201DC01207047002073
:100950007047000010B5334C2079632855D00EDC69
:1009600055282DD006DC422830D043284BD05228C1
:1009700055D13EE061280FD0622850D12FE06D287C
:1009800010D004DC652812D0682848D145E07228D0
:1009900033D0752843D10FE004F086FC00283ED008
:1009A00021A037E004F0B0FC03E025A032E004F021
:1009B000CDFC0028F9D132E0062002E026A029E093
:1009C000002004F0B7FB0028F8D128E0062004F04E
:1009D00027FC08B126A01DE04FF4E13006E002201C
:1009E00004F01EFC0028F5D14FF4165004F016FA5E
:1009F00015E0062002E023A00CE0032004F0E6FB53
:100A00000028F8D10BE01E2000E0022004F0B4FB27
:100A100028B121A004F032FD01E003F02DF9FF2000
:100A2000207110BD000000240D0A5365742041633D
:100A30006343616C69204572726F720D0A00000099
:100A40000D0A536574204D616743616C69204572DE
:100A5000726F720D0A0000000D0A53657420426126
:100A60006E647769647468204572726F720D0A0053
:100A70000D0A5365742042617564204572726F726D
:100A80000D0A00000D0A53657420526174652045FB
:100A900072726F720D0A00000D0A53657420525372
:100AA00057204572726F720D0A0000002DE9F04761
:100AB0000027DFF8A480DFF8A490042550383E46D4
:100AC000102801F1060A45D2DFE800F01108130CE6
:100AD0001517191B1D1F21444444442334240325A6
:100AE000402702E03D2403252E27012613E0302471
:100AF00011E037242BE03A2429E041240BE045247F
:100B000009E0492407E04D2405E0512403E0552481
:100B100001E0D8F82440032A19D04DB16A0009EB4E
:100B20004400FFF720FCD8F81420294620469047BF
:100B3000002E0FD07200514609EB4700FFF713FC5F
:100B4000D8F8142031463846BDE8F0471047032551
:100B50000026E3E7BDE8F087240000247C0300249E
:100B6000704700F013BB00001CB504460BA0D0E991
:100B70000010CDE90010062168468DF8052002F02E
:100B800016FF8DF80600010A6423204608228DF81E
:100B90000710694602F0DAFD1CBD00000106008165
:100BA0000000000072B6FEE72DE9F84F044600F0A1
:100BB0000DFC00903CB194F83500022806D080214D
:100BC00061650020E4E00120BDE8F88FC74DC74E05
:100BD000C649183520683036DFF81483DFF81493DF
:100BE0008842DFF814A3DFF814B32ED0A8422CD02B
:100BF000B0422AD0404528D0484526D0504524D080
:100C0000584522D0BD4A183290421ED0BC4A90426C
:100C10001BD0BB4A1832904217D0B94A30329042AA
:100C200013D0B74A483290420FD0B54A6032904252
:100C30000BD0B34A7832904207D0B14A90329042FA
:100C400003D0AF4AA832904209D1026822F01E02B6
:100C500002602068426922F08002426103E002687B
:100C600022F00E02026027688F4238464DD0A8421B
:100C70004BD0B04249D0404547D0484545D050457B
:100C800043D0584541D09D4A183290423DD09C4AAD
:100C900090423AD09A4A1832904236D0984A30322E
:100CA000904232D0964A483290422ED0944A6032D6
:100CB00090422AD0924A7832904226D0904A90327E
:100CC000904222D08E4AA83290421ED08D4A904245
:100CD0001BD08C4A1432904217D08A4A2832904254
:100CE00013D0884A3C3290420FD0864A503290420C
:100CF0000BD0844A6432904207D0824A78329042C4
:100D000003D0804A8C32974204D1206E026822F4CC
:100D10008072026075492068884228D0A84226D097
:100D2000B04224D0404522D0484520D050451ED066
:100D300058451CD071491831884218D070498842F2
:100D400015D06F491831884211D06D493031884231
:100D50000DD06B494831884209D0694960318842D9
:100D600005D067497831884201D0654990310168E2
:100D700021F0010101600EE000F028FB0099401A0B
:100D8000052808D9202262650321002084F8351047
:100D900084F8340017E73868C007EDD1534A0121C1
:100DA000206890422ED0A8422CD0B0422AD0404594
:100DB00028D0484526D0504524D0584522D04F4B06
:100DC000183398421ED04E4B98421BD04C4B1833D0
:100DD000984217D04A4B3033984213D0484B48338F
:100DE00098420FD0464B603398420BD0444B783337
:100DF000984207D0424B9033984203D0404BA833DF
:100E0000984208D194F85C703F23A06D07F01F074B
:100E1000BB40836007E094F85C30A06D03F01F03D3
:100E200001FA03F34360206890424DD0A8424BD0B2
:100E3000B04249D0404547D0484545D0504543D0C1
:100E4000584541D02D4A183290423DD02C4A90420C
:100E50003AD02B4A1832904236D0294A303290424A
:100E600032D0274A483290422ED0254A60329042F2
:100E70002AD0234A7832904226D0214A903290429A
:100E800022D01F4AA83290421ED01E4A90421BD048
:100E90001C4A1432904217D01A4A2832904213D07A
:100EA000184A3C3290420FD0164A503290420BD032
:100EB000144A6432904207D0124A7832904203D0EA
:100EC000104A8C3290420BD1D4E919024260E06E94
:100ED00030B1026822F480720260D4E91C024260E0
:100EE000002084F8351084F834006DE610000240CC
:100EF000580002407000024088000240A0000240FA
:100F000010040240085402582DE9F05F28B190F80F
:100F10003510022904D0802141650120BDE8F09FF1
:100F2000904C904B0168183C18338E4ADFF83C9285
:100F3000A1428D4CDFF838E28E4FDFF83CB2DFF88B
:100F40003CA28F4D8F4E31D091422FD099422DD05F
:100F5000A1422BD0494529D0714527D0B94225D08F
:100F6000DFF810C20CF1180C61451FD0DFF808C281
:100F7000ACF1600C614519D0DFF8FCC1ACF1480C54
:100F8000614513D0DFF8F0C1ACF1300C61450DD0F4
:100F9000DFF8E4C1ACF1180C614507D0594505D024
:100FA000514503D0A94201D0B1422CD1DFF8B4C1E0
:100FB0004FF0040880F83580ACF1180C61451DD065
:100FC00091421BD0994219D0A14217D0494515D062
:100FD000714513D0B94211D06648183081420DD006
:100FE00065486038814209D063484838814205D05D
:100FF00061483038814201D05F481838086820F0D5
:1010000001000860ABE0D1F800C02CF00E08DFF85A
:1010100054C1C1F80080ACF1180C0168614527D0BB
:10102000914225D0994223D0A14221D049451FD0D9
:1010300071451DD0B9421BD0DFF838C10CF1180C36
:10104000614515D0DFF830C1ACF1600C61450FD0BF
:10105000DFF824C1ACF1480C614509D0DFF818C1B4
:10106000ACF1300C614503D0DFF80CC1ACF1180CC9
:10107000D1F800C02CF0010CC1F800C0DFF8E4800A
:101080004FF0010C0168A8F11808414546D0914283
:1010900044D0994242D0A14240D049453ED071450A
:1010A0003CD0B9423AD0334A1832914236D0324A13
:1010B000603A914232D0304A483A91422ED02E4A7C
:1010C000303A91422AD02C4A183A914226D05945BA
:1010D00024D0514522D0A94220D0B1421ED02A4A64
:1010E00091421BD0284A1432914217D0264A283206
:1010F000914213D0244A3C3291420FD0224A5032BE
:1011000091420BD0204A6432914207D01E4A783275
:10111000914203D01C4A8C32914218D1016E0A6868
:1011200022F480720A6090F85C20816D02F01F0248
:101130000CFA02F24A60D0E919124A60C16E31B16C
:101140000A6822F480720A60D0E91C124A60002208
:10115000016D80F835C080F8342001B18847002047
:10116000DCE6000028000240580002407000024007
:1011700088000240A000024070040240880402403F
:10118000A0040240B80402400854025870B5044656
:1011900000F01CF90546601C02D0044800780444A5
:1011A00000F014F9401BA042FAD370BD18000024CF
:1011B0002DE9F84F03247A4D00234FF001094FF039
:1011C000B04B4FF00F0AE4E009FA03F6324078D052
:1011D0000F7907F00307012F01D0022F1AD187687A
:1011E0004FEA430ED1F80CC004FA0EF827EA0807BC
:1011F0000CFA0EFC4CEA070CC0F808C0476891F8DE
:1012000004C0B743CCF3001C0CFA03FC4CEA070CF7
:10121000C0F804C00E79F643B6070BD0C6684FEA93
:1012200043088F6804FA08FC26EA0C0607FA08F758
:101230003743C7600E7906F00306022E12D1DE088E
:101240000F694FEA437C00EB8606B646366A4FEAE2
:10125000DC6C0AFA0CF807FA0CF726EA08063743A2
:10126000CEF820700F7906684FEA430807F00307AD
:1012700004FA08FC07FA08F726EA0C063743076069
:101280004E6816F4403F1CD0464E376847F00207C0
:10129000376036689F0706F00206009623F00306C3
:1012A00006F1B046B6463F0FD6F80864DFF8F8807E
:1012B0000AFA07FC404526EA0C0603D14FF0000C61
:1012C0003AE065E0DFF8E4C0604502D14FF0010C80
:1012D00032E0DFF8DCC0604502D14FF0020C2BE0B9
:1012E000DFF8D0C0604502D14FF0030C24E0DFF8F6
:1012F000C8C0604502D14FF0040C1DE0DFF8BCC04F
:10130000604502D14FF0050C16E0DFF8B4C060452F
:1013100002D14FF0060C0FE0DFF8A8C0604502D103
:101320004FF0070C08E0DFF8A0C0604502D14FF095
:10133000090C01E04FF00A0C0CFA07FC4CEA060C11
:10134000CEF808C44F68DBF80060FF0226EA020608
:1013500000D516435F46CBF80060D1F804C0DBF837
:1013600004605FEA8C2C26EA020600D516437E60F4
:101370006E684F6826EA0206BF0300D516436E600A
:101380002E684F6826EA0206FF0300D516432E603A
:101390005B1C0A6832FA03F67FF416AFBDE8F88FDB
:1013A00080000058F444025800000258000402581B
:1013B00000080258000C025800100258001402588D
:1013C00000180258001C0258002402580148806886
:1013D0007047000018000024024881680278114418
:1013E0008160704718000024032010B500F0D4F885
:1013F00001F076F80F4A104914681368C4F3032209
:1014000003F00F038A5CC95C02F01F0201F01F01A8
:10141000D0400A4A20FA01F11160094908600F2002
:1014200000F010F808B1012010BD00F079F800209C
:1014300010BD000018440258086000080400002095
:101440000000002070B50D4D04462878A0B14FF47F
:101450007A71B1FBF0F00A490968B1FBF0F001F0D4
:101460006EFB48B9102C07D200222146501E00F016
:1014700073F800206C6070BD012070BD180000245E
:1014800000000020154BF0B5083B427813491A6064
:101490000B680A1F23F001030B6043681360057B90
:1014A000C67A827A437B2D07847B45EA0665C77B33
:1014B00090F809C0067A90F800E045EAC24040EA98
:1014C000834040EA444040EA074040EA0C2040EABA
:1014D000460040EA0E000860F0BD0000A0ED00E00C
:1014E000BFF35F8F044800210368034A23F480336D
:1014F000036070321160704724ED00E0074A40F04D
:101500000100064970321060086840F480300860BD
:10151000BFF34F8FBFF36F8F7047000024ED00E0E3
:10152000054808B5016841F002010160006800F05B
:101530000200009008BD0000F4440258002809DBB6
:10154000410900F01F028900012001F1E0219040D3
:10155000C1F80001704700000E4BF0B41B680D4647
:10156000C3F30223C3F10706042E00D90426191D74
:10157000072901D2002300E0DB1E012404FA06F152
:101580009C40491E2940641E994014402143F0BCF0
:1015900003F09ABF0CED00E0064900F0070210B519
:1015A0004FF6FF040868044B204040EA022018432D
:1015B000086010BD0CED00E00000FA05134970B59D
:1015C0000A68D243520705D5096801F00701814234
:1015D00013D118E00A6822F0070202430A60FFF7FD
:1015E000F5FE0A4D4FF47A760446083D07E000BF49
:1015F000FFF7ECFE001BB04201D9012070BD286846
:10160000C0438004F4D4002070BD00000C48025890
:1016100010B500F01FFF05490968054AC1F3021122
:10162000515C01F01F01C84010BD00002044025869
:1016300008600008494930B5484C0B1D0A6814344D
:1016400009681D68246802F00303C5F30012C1F3A2
:101650000531C4F3CC04002914FB02F200EE102A79
:10166000F8EE400A75D03F4A9FED3D1AB7EE000AEA
:101670006BB1DFED3D1A012B01D0022B64D002EEDD
:10168000101A1168F8EE422A81EEA22A21E0334CAA
:10169000283C23689B0612D5344B246801EE901A2F
:1016A0001168C4F3C104F8EE612AE34001EE903AF8
:1016B000C1F30801F8EE611A81EEA22A0BE001EEF7
:1016C000901ADFED2B2A00BFF8EE611A116882EE46
:1016D000A12AC1F3080101EE901A1168F8EE611A0F
:1016E00040EE811A71EE800A62EE200AC1F34621B3
:1016F00001EE101AB8EE411A31EE001AC0EE811A4E
:10170000BCEEE11A80ED001A1168C1F3064101EE4A
:10171000101AB8EE411A31EE001AC0EE811ABCEE72
:10172000E11A80ED011A1168C1F3066101EE101A89
:10173000B8EE411A31EE000A80EE801ABCEEC10A02
:1017400080ED020A30BD04E001EE901ADFED092AB7
:10175000BAE70021016041608160F3E72844025844
:1017600000000039384402580024744A0090D00325
:101770000024744C20BCBE4B494930B5484C0B1D6D
:101780000A681C3409681D68246802F00303C5F365
:101790000022C1F30551C4F3CC04002914FB02F26A
:1017A00000EE102AF8EE400A75D03F4A9FED3D1A30
:1017B000B7EE000A6BB1DFED3D1A012B01D0022B11
:1017C00064D002EE101A1168F8EE422A81EEA22AC5
:1017D00021E0334C283C23689B0612D5344B246807
:1017E00001EE901A1168C4F3C104F8EE612AE340D7
:1017F00001EE903AC1F30801F8EE611A81EEA22AD7
:101800000BE001EE901ADFED2B2A00BFF8EE611A13
:10181000116882EEA12AC1F3080101EE901A116845
:10182000F8EE611A40EE811A71EE800A62EE200A2B
:10183000C1F3462101EE101AB8EE411A31EE001A3A
:10184000C0EE811ABCEEE11A80ED001A1168C1F3F6
:10185000064101EE101AB8EE411A31EE001AC0EE40
:10186000811ABCEEE11A80ED011A1168C1F306611C
:1018700001EE101AB8EE411A31EE000A80EE801A1D
:10188000BCEEC10A80ED020A30BD04E001EE901A00
:10189000DFED092ABAE70021016041608160F3E7CA
:1018A0002844025800000039404402580024744A79
:1018B0000090D0030024744C20BCBE4B2DE9FE4F99
:1018C0000546DFF800A450F8081B0024FD4FC9436B
:1018D000019005F1280026460AF1240A009008012B
:1018E0001DD4686E50B1B0F5801F0CD0B0F5001F4C
:1018F0000ED0B0F5401F1ED001240FE0386840F430
:101900000030386017E00198022102F06BF803E024
:101910000098022102F0F6F804000CD02646288830
:10192000C043C00523D4A86D05281ED2DFE800F00F
:101930000C11161B1B006A6EDAF8001021F440111E
:101940001143CAF80010EAE7386840F40030386004
:1019500009E00198002102F045F803E00098002119
:1019600002F0D0F80446C4B100E0012426462888DD
:10197000DFF85083C04308F12C0840052FD4D5F878
:10198000A400B0F5C00F28D010DCB8B1B0F5001F2E
:1019900019D0B0F5800F0FD11AE0AA6DDAF8001057
:1019A00021F007011143CAF80010E0E7B0F5000F7D
:1019B00013D0B0F5200F10D001240FE0386840F4A8
:1019C0000030386009E00198002102F00BF803E0D4
:1019D0000098002102F096F8044694B12646288823
:1019E000C043000530D4D5F8A800B0F1407F29D01D
:1019F00011DCC0B1B0F1807F1AD0B0F1007F10D1FE
:101A00001BE0D5F8A420D8F8001021F460011143A0
:101A1000C8F80010E3E7B0F1806F13D0B0F1A06F09
:101A200010D001240FE0386840F40030386009E03D
:101A30000198002101F0D6FF03E00098002102F098
:101A400061F8044694B126462868DFF878B2C043AE
:101A50000BF1200B80011FD4E86CD8B110280FD0F7
:101A6000202812D0302815D0012414E0D5F8A82061
:101A7000D8F8001021F0E0611143C8F80010E3E746
:101A8000386840F40030386004E00198022101F029
:101A9000A9FF044674B126462888C043C0042BD44D
:101AA000E86DB0F5005F20D00DDCA0B1B0F5805F2F
:101AB0000FD115E0EA6CDBF8001021F03001114382
:101AC000CBF80010E8E7B0F5405F13D0B0F5804FD9
:101AD00010D001240FE0386840F40030386009E08D
:101AE0000198002101F07EFF03E00098002102F040
:101AF00009F804468CB126462888C043800429D4BE
:101B0000286EB0F5403F23D010DC08B3B0F5803F1D
:101B100014D0B0F5003F0FD115E0EA6DDAF80010EF
:101B200021F4E0411143CAF80010E5E7B0F5802F39
:101B30000ED0B0F5A02F0BD001240AE001980121AE
:101B400001F050FF03E00098012101F0DBFF0446A3
:101B500094B126462888C04340042AD4D5F8AC0066
:101B6000B0F1405F23D010DC08B3B0F1805F14D037
:101B7000B0F1005F0FD115E02A6EDAF8001021F401
:101B8000E0211143CAF80010E4E7B0F1804F0ED015
:101B9000B0F1A04F0BD001240AE00198012101F01F
:101BA00021FF03E00098012101F0ACFF044674B16D
:101BB00026462888C04300041FD4E86ED8B1B0F18F
:101BC000805F0ED0B0F1005F10D0012414E0D5F892
:101BD000AC20D8F8001021F0E0411143C8F8001003
:101BE000E7E7386840F40030386004E001980121EC
:101BF00001F0F8FE044674B126462868C043C001CF
:101C00001ED4A86CD0B101280ED0022811D0032810
:101C100014D0012413E0EA6EDAF8001021F04051EC
:101C20001143CAF80010E8E7386840F40030386023
:101C300004E00198022101F0D5FE04466CB126466D
:101C40002868C043400255D41F48016841F48071A0
:101C50000160FFF7BBFB81460EE0AA6CDBF80010C9
:101C600021F003011143CBF80010E9E7FFF7AEFBC9
:101C7000A0EB090064283BD813480068C005F5D5DF
:101C8000BCBBDFF84090B5F8B01009F14409D9F8B1
:101C9000000001F4407100F44070884211D0D9F87E
:101CA0000010D9F8002021F4407142F48032C9F8C4
:101CB0000020D9F8002022F48032C9F80020C9F8A9
:101CC000001003E02C44025800480258D5F8B00038
:101CD000B0F5807F19D1FFF779FB029011E000BFCA
:101CE000FFF774FB0299411A41F28830814208D90A
:101CF000032426462878DFF81494C043C00721D077
:101D00003CE0D9F800008007EAD5D5F8B010C1F35F
:101D100001200328FE480DD0016821F47C510160A8
:101D2000B5F8B020D9F80010C2F30B021143C9F87E
:101D30000010DFE7F74A036802EA111223F47C512E
:101D40001143ECE7A86F182816D005DCA0B10828CD
:101D500008D0102804D10AE020280DD028280BD064
:101D600001240AE00198012101F03CFE03E0009803
:101D7000012101F0C7FE044664B126462878C0431D
:101D800080071ED4686F062819D2DFE800F0160C11
:101D900011161616AA6FD9F8001021F03801114358
:101DA000C9F80010EAE70198012101F01BFE03E0E9
:101DB0000098012101F0A6FE04467CB100E0012458
:101DC00026462878C04340071FD4D5F8900006283F
:101DD00019D2DFE800F0160C111616166A6FD9F842
:101DE000001021F007011143C9F80010E9E701983C
:101DF000012101F0F7FD03E00098012101F082FECE
:101E00000446A4B100E0012426462878C043800699
:101E10002BD4D5F88C00B0F1405F24D011DC10B386
:101E2000B0F1805F15D0B0F1005F10D116E0D5F8A9
:101E30009020D8F8001021F007011143C8F80010D5
:101E4000E3E7B0F1804F0ED0B0F1A04F0BD00124EA
:101E50000AE00198002101F0C5FD03E0009802218D
:101E600001F050FE044694B126462878C04340064F
:101E70002BD4D5F89800B0F5406F24D011DC10B306
:101E8000B0F5806F15D0B0F5006F10D116E0D5F821
:101E90008C20D9F8001021F0E0411143C9F800105E
:101EA000E3E7B0F5805F0ED0B0F5A05F0BD0012462
:101EB0000AE00198002101F095FD03E0009802215D
:101EC00001F020FE044694B126462878C04300065F
:101ED0002BD4D5F89C00B0F5C04F24D011DC10B342
:101EE000B0F5005F15D0B0F5804F10D116E0D5F8F1
:101EF0009820D8F8001021F4E0511143C8F80010E0
:101F0000E3E7B0F5004F0ED0B0F5204F0BD0012421
:101F10000AE00198002101F065FD03E0009802212C
:101F200001F0F0FD044654B126462878C04300076E
:101F30001ED4D5F88000B0F5805F0AD00FE0D5F848
:101F40009C20D8F8001021F460411143C8F800101B
:101F5000EBE70098022101F0D5FD00B10126D5F88C
:101F60008020D9F8001021F440511143C9F8001025
:101F70002878C043C00613D4D5F89400B0F5807F0C
:101F800005D10098022101F0BDFD00B10126D5F870
:101F90009420D8F8001021F440711143C8F80010C3
:101FA0002868C043000316D4D5F8A00038B1B0F5B6
:101FB000803F09D0B0F5003F0BD001240AE0019822
:101FC000002101F00FFD03E00098022101F09AFDCD
:101FD00004468CB126462868C043400322D4D5F875
:101FE0008400B0F5801F11D0B0F5001F13D0B0F5FC
:101FF000401F15D0012414E0D5F8A020D8F8001017
:1020000021F440311143C8F80010E4E7386840F487
:102010000030386004E00098012101F073FD0446AF
:102020005CB126462868C043C0031CD4286D70B13B
:10203000B0F5803F10D0012414E0D5F88420D9F801
:10204000001021F440111143C9F80010EAE7386884
:1020500040F40030386004E00198022101F0C2FC35
:102060000446DCB126462868C043800005D40098A9
:10207000022101F047FD00B101262868C04380031A
:102080001BD4E86FB8B1B0F5807F10D0B0F5007FF9
:1020900011D0B0F5407F0ED001240DE02A6DDBF8A1
:1020A000001021F480311143CBF80010DBE73868D1
:1020B00040F4003038607CB326462868C043C00234
:1020C00007D42A6FDAF8001021F000411143CAF852
:1020D00000102868C043800207D4AA6EDAF8001006
:1020E00021F080711143CAF800102868C0434000F5
:1020F00009D40748016821F4004101600168D5F85E
:10210000B420114301602868C04306E054440258DB
:1021100010440258CFFFFF001DE007D46A6DDBF8C2
:10212000001021F040511143CBF800102868C04343
:10213000000208D4D5F88820D9F8001021F4400115
:102140001143C9F8001028790024C04300F00100B1
:10215000204309D00EE0EA6FD9F8001021F4407155
:102160001143C9F80010A8E70198002101F03AFCDA
:1021700000B106462879C04300F00200204305D193
:102180000198012101F02EFC00B106462879C043D8
:1021900000F00400204305D10198022101F022FC47
:1021A00000B106462879C04300F00800204305D15D
:1021B0000098002101F0A6FC00B106462879C04332
:1021C00000F01000204305D10098012101F09AFC95
:1021D00000B106462879C04300F02000044304D132
:1021E0000098022101F08EFC00B916B10120BDE873
:1021F000FE8F0020FBE700002DE9F05F04000F4692
:102200007ED0DFF83882D8F8000000F00F00B84226
:102210000CD2D8F8001021F00F013943C8F8001093
:10222000D8F8000000F00F00B84269D12078844D42
:1022300040070AD52069296801F07001884204D955
:10224000296821F070010143296020787C4E361DF9
:1022500000070AD56069316801F07001884204D92D
:10226000316821F07001014331602078C0060AD541
:10227000A069316801F4E061884204D9316821F431
:10228000E061014331602078DFF8B4B180060BF1E2
:10229000080B0CD5E1695846DBF8002002F070020B
:1022A000914204D9026822F070020A430260207849
:1022B00080070AD5E068296801F00F01884204D937
:1022C000296821F00F01014329602078C0073ED022
:1022D0005B49A2682868183920F4706010432860B0
:1022E0006068022818D0032819D00968012819D07D
:1022F000490700294ADADFF848A1AAF1080A00E0F4
:1023000044E0DAF8002022F007020243CAF8002075
:10231000FFF75CF8814612E009688903E9E709687C
:102320008901E6E7C905E4E7FFF750F8A0EB0901EA
:1023300041F28830814202D90320BDE8F09F6168F4
:10234000DAF8000000F03800B0EBC10FECD12078D3
:1023500080070AD5E068296801F00F01884204D29D
:10236000296821F00F0101432960D8F80010404688
:1023700001F00F01B9420BD9016821F00F01394377
:102380000160006800F00F00B84201D00120D4E7DE
:10239000207840070AD52069296801F07001884239
:1023A00004D2296821F070010143296020780007D8
:1023B0000AD56069316801F07001884204D2316841
:1023C00021F07001014331602078C0060AD5A06970
:1023D000316801F4E061884204D2316821F4E0619F
:1023E00001433160207880060CD5E1695846DBF85E
:1023F000002002F07002914204D2026822F07002C2
:102400000A43026000F06CF80E492A682B68C2F398
:10241000032203F00F038A5CC95C02F01F0201F083
:102420001F01D040084A20FA01F1116007490860F5
:1024300007480068BDE8F05FFFF704B800200052CD
:102440001844025808600008040000200000002022
:102450001C00002430B500F043F80B4A0B490C4B2C
:1024600015681468C5F3032204F00F048A5C095D43
:1024700002F01F0201F01F01D040064A20FA01F1CC
:1024800019601060084630BD184402580860000802
:10249000040000200000002000B5FFF7DBFF054925
:1024A0000968054AC1F30211515C01F01F01C840DF
:1024B00000BD00001C4402580860000800B5FFF78A
:1024C000C9FF05490968054AC1F30221515C01F0C1
:1024D0001F01C84000BD00001C44025808600008ED
:1024E000454970B545480968434B103B11F0380227
:1024F00008D00111082A03D0102A0BD0182A0BD0BB
:10250000084670BD19688906FBD51968C1F3C10179
:10251000C84070BD3A4870BD3749374D18310C1D61
:1025200024350A68096826682D6802F0030406F05D
:102530000102C1F30511C5F3CC0515FB02F200EE53
:10254000102AB8EE400AE9B32F4ADFED2E0AB7EEA3
:10255000001A6CB1DFED2D1A012C01D0022C43D0F2
:1025600002EE101A1068F8EE422A81EEA22A1EE04E
:102570001C68A40611D51B6801EE901A1168C3F3FC
:10258000C103F8EE612AD84001EE900AC1F30800B9
:10259000F8EE611A81EEA22A0BE001EE901ADFED4F
:1025A0001C2A00BFF8EE611A106882EEA12AC0F35F
:1025B000080001EE900AF8EE611A40EE201A31EEA2
:1025C000810A00E015E022EE000A1068C0F3462000
:1025D000401C00EE900AF8EE600A80EE201ABCEE75
:1025E000C10A10EE100A70BD01EE901ADFED092A43
:1025F000D8E7002070BD0000104402580090D003BE
:1026000040787D0100000039304402580024744AAB
:102610000024744C20BCBE4B2DE9F05F04007DD03B
:10262000FF4F2078FE4D1837DFF8F483103DC007C8
:1026300048D0D8F80000396800F03800102815D0CC
:10264000182803D101F0030002280FD06068B0F50C
:10265000803F12D010B1B0F5A02F18D0286820F418
:1026600080302860286820F4802009E028688003F2
:1026700028D560680028D2D024E0286840F4803053
:102680002860606888B1FEF7A1FE064609E0286868
:1026900040F480202860F0E7FEF798FE801B642855
:1026A0007ED828688003F7D50CE0FEF78FFE06463B
:1026B00005E000BFFEF78AFE801B6428F0D828687A
:1026C0008003F7D42078800756D5D8F80000DFF8CB
:1026D0005093396810F03800A9F10C090ED0182871
:1026E00001D188070AD0E068A8B3296821F0190150
:1026F00001432960FEF76AFE064628E02868400785
:1027000002D5E06800288AD0E168286820F0190026
:1027100008432860FEF75AFE064606E0D2E000BFF6
:10272000FEF754FE801B0228BAD828684007F7D568
:10273000217CD9F8002022F0FE4242EA0161C9F86A
:10274000001019E0FEF742FE801B0228A8D8286876
:102750004007F7D5ECE7FFE7286820F00100286084
:10276000FEF734FE064604E0FEF730FE801B02282A
:1027700096D828684007F7D42078C00646D5D8F800
:102780000000DFF89C92396800F03800A9F10409D4
:10279000082812D0182805D101F00300012800E014
:1027A000CEE00AD0E0690028286820D040F0800000
:1027B0002860FEF70BFE064615E02868C00502D526
:1027C000E06980287ED194F82010D9F8002022F00A
:1027D0007C5242EA0161C9F8001017E0FEF7F6FDED
:1027E000801B0228A0D82868C005F7D5EBE720F0A9
:1027F00080002860FEF7EAFD064604E0FEF7E6FDED
:10280000801B022890D82868C005F7D420780007DC
:1028100029D583486169643000298146016811D057
:1028200041F001010160FEF7D1FD064605E000BF61
:10283000FEF7CCFD801B022888D8D9F8000080075D
:10284000F6D510E021F001010160FEF7BFFD06465C
:1028500005E000BFFEF7BAFD801B022870D8D9F84A
:1028600000008007F6D42078800623D5A0690028D0
:10287000286810D040F480502860FEF7A7FD064677
:1028800005E000BFFEF7A2FD801B022858D828688B
:102890008004F7D50EE020F480502860FEF796FD06
:1028A000064604E0FEF792FD801B022848D82868FF
:1028B0008004F7D42078400751D5DFF86891D9F823
:1028C000001000E015E141F48071C9F80010FEF736
:1028D0007DFD064605E000BFFEF778FD801B6428FD
:1028E0002ED8D9F80000C005F6D54D4EA068603648
:1028F00001280AD008B1052813D0306820F0010063
:102900003060306820F0040002E0306840F00100E0
:102910003060A06841F2883A98B1FEF757FD8146D1
:102920000AE0306840F004003060EEE7FEF74EFD4C
:10293000A0EB0901514503D830688007F6D50EE0B9
:1029400072E0FEF743FD814606E000BFFEF73EFD64
:10295000A0EB0901514567D830688007F6D4606A5A
:1029600000287CD0DFF8B8A0D8F800100AF1200ABF
:102970004FF6F87B0AF10408C1F3C2010329AAF15A
:1029800004096DD00228286820F08070286003D0E8
:10299000FEF71CFD044681E0FEF718FD064604E044
:1029A000FEF714FD801B022875D828688001F7D433
:1029B000E26A40F2F331386854F8283F884340EA2D
:1029C000021018433860217B4FF4FE0C22894FF02F
:1029D000FE47208A4902267D521E401EA1F5007145
:1029E00089B2C2F308021143761E0CEA004001438B
:1029F000484607EA06621143CAF80010D9F80010E9
:102A000021F00101C9F80010D8F80030266A23EA45
:102A10000B0343EAC601C8F80010D9F8001004E01F
:102A2000104402580048025835E0A26921F00C0118
:102A30001143C9F800100168E26921F00201114355
:102A40000160016841F480310160016841F40031A6
:102A50000160016841F480210160016801E06CE0DF
:102A600020E041F001010160286840F0807028609A
:102A7000FEF7ACFC044604E0FEF7A8FC001B0228AD
:102A800009D828688001F7D557E000BFFEF79EFC03
:102A9000001B022802D90320BDE8F09F28688001AE
:102AA000F4D44AE039680128DAF8000021D0A26A9B
:102AB00001F0030393421CD1E26AC1F305118A427B
:102AC00017D1216BC0F30802491E8A4211D1616BF4
:102AD000C0F34622491E91420BD1A16BC0F30642BE
:102AE000491E914205D1E16BC0F30660491E814247
:102AF00001D00120D0E7A16C4646D8F80000C0F311
:102B0000CC00814219D0D9F800004D4620F00100D8
:102B1000C9F80000FEF75AFC4FEA0007FEF756FC22
:102B2000B842FBD0A26C306820EA0B0040EAC20039
:102B30003060286840F0010028600020ACE7401EAB
:102B4000B0F1807F10B501D3012010BD4FF0E0241B
:102B500060610F21601702F0B7FC0020A06107211F
:102B6000216110BD7047704770470000F0B590F8C4
:102B70003C20012A41D0224E012480F83C40022210
:102B800080F83D2002681F4D5368B242D2F808C059
:102B900001D0AA4203D14F6823F470033B430F686E
:102BA00023F070031F4357600268B24219D0B2F19C
:102BB000804F16D0144B9A4213D0144B9A4210D027
:102BC000134B9A420DD0AA420BD0124B9A4208D016
:102BD000114B9A4205D0114B9A4202D0104B9A42A7
:102BE00004D189682CF0800319439160002180F89A
:102BF0003D4080F83C100846F0BD0220F0BD0000CA
:102C000000000140000401400004004000080040B2
:102C1000000C0040001800400040014000E000406F
:102C200000E4004010B5040003D094F83D0010B15A
:102C300007E0012010BD002084F83C00204600F091
:102C400023F8022084F83D002068211D01F0D4F90A
:102C5000012084F8480084F83E0084F83F0084F89E
:102C6000400084F8410084F8420084F8430084F86E
:102C7000440084F8450084F8460084F8470084F84E
:102C80003D00002010BD000008B500680B498842D7
:102C900012D10B48016841F0020101600068002276
:102CA000114600F0020000901D20FEF755FCBDE823
:102CB00008401D20FEF742BC08BD00000004004093
:102CC000E844025890F83D10012901D001207047D6
:102CD0001A4A022180F83D100168CB6843F00103D5
:102CE000CB60006890421AD0B0F1804F17D01449E1
:102CF000884214D01349884211D0134988420ED01B
:102D0000124988420BD01249884208D011498842A2
:102D100005D01149884202D01049884207D1816804
:102D20000F4A1140062906D0B1F5803F03D0016853
:102D300041F00101016000207047000000000140E7
:102D40000004004000080040000C00400004014066
:102D5000001800400040014000E0004000E4004056
:102D60000700010070B5044690F83C0000250128DA
:102D700014D03A4B012684F83C60022084F83D00D0
:102D800022689068184020F47F409060086870289E
:102D90002FD010DC10F00F0F03D022E04FF0020014
:102DA00070BD4FEA2012072A1BD2DFE802F053530E
:102DB00053534B394100B0F1101F4BD009DCB0F533
:102DC000805F0FD0B0F5005F1ED0B0F5801F08D136
:102DD00040E0A0F5801120393CD010293AD02029BC
:102DE00038D0012584F83D60002084F83C00284656
:102DF00070BD4A682068D1E9021301F06FF92068BC
:102E0000816841F0770109E04A682068D1E902133E
:102E100001F064F92068816841F480418160E1E754
:102E2000CA684968206801F06DF92068502106E001
:102E3000CA684968206801F076F92068602101F0CD
:102E400057F9CFE7CA684968206801F05BF9206844
:102E50004021F4E7226801461046F0E788FFCEFFE4
:102E600070472DE9F041044600680027C6680569EF
:102E7000A90713D5B10711D5FA1E026101212177E7
:102E8000206880698007204602D0FFF7E9FF04E050
:102E900000F08BF8204600F089F82777680716D5F0
:102EA000700714D5226802206FF0040111612077A9
:102EB0002068806910F4407F204602D0FFF7D0FFE1
:102EC00004E000F072F8204600F070F82777280739
:102ED00015D5300713D5226804206FF00801116161
:102EE00020772068C0698007204602D0FFF7B8FF2E
:102EF00004E000F05AF8204600F058F82777E8067A
:102F000016D5F00614D5226808206FF01001116163
:102F100020772068C06910F4407F204602D0FFF778
:102F20009FFF04E000F041F8204600F03FF82777CB
:102F3000E80708D0F00706D021686FF001000861AB
:102F4000204600F035F8280601D4A80408D530063C
:102F500006D521686FF4025008612046FFF703FE92
:102F6000E80508D5300606D521686FF48070086141
:102F70002046FFF7F7FD680608D5700606D52168DC
:102F80006FF040000861204600F03AF8A8060AD524
:102F9000B00608D521686FF0200008612046BDE822
:102FA000F041FFF7E1BDBDE8F081704770470000D8
:102FB0000068114988421ED110480021012203698E
:102FC0005B1C0361037A5B1CDBB203720A2B01D327
:102FD00002700172437A5B1CDBB24372642B01D333
:102FE0004270417283895B1C9BB28381B3F57A7F07
:102FF00001D3428181817047000400400000002419
:10300000704730B590F88410012918D0012280F85B
:1030100084202421C0F888100022202401680B6835
:103020000D6823F0005325F001050D60426601682C
:103030000B60C0F8884080F88420104630BD022024
:1030400030BD7047704770B5044690F88400012881
:103050001DD0012284F884202420C4F88800206830
:103060000568026822F0010202602068826822F08E
:1030700060620A438260204601F068F822682021DD
:1030800000201560C4F8881084F8840070BD022008
:1030900070BD70B5044690F8840001281DD001224F
:1030A00084F884202420C4F8880020680568026819
:1030B00022F0010202602068826822F060420A4326
:1030C0008260204601F042F822682021002015602D
:1030D000C4F8881084F8840070BD022070BD704769
:1030E000704770472DE9F04107680025044640F617
:1030F0000F030226F8693968BA6818420AD18306B4
:103100007ED501F0200302F0805C53EA0C0377D0F7
:10311000616F74E1CF4BDFF840C3134001EA0C0C40
:1031200053EA0C0C6CD05FEAC07C0CD05FEAC15C47
:1031300009D54FF0010CC7F820C0D4F8907047F0C3
:103140000107C4F89070870709D5D70707D027680B
:103150003E62D4F8906046F00406C4F890604607DA
:103160000AD5D60708D0276804263E62D4F89060B6
:1031700046F00206C4F8906006070CD501F0200660
:103180001E4308D0266808233362D4F8903043F0F9
:103190000803C4F8903003050BD54B0109D5266808
:1031A0004FF400633362D4F8903043F02003C4F846
:1031B0009030D4F89030002B3DD0800609D501F036
:1031C000200002F08051084303D0616F09B120460E
:1031D00088472168D4F890008968490602D410F025
:1031E000280F2AD0204601F097F820688068400612
:1031F0001ED52068083050E8001F21F0400100E093
:1032000021E040E80012002AF3D1D4F8800078B120
:1032100092490165D4F88000FDF776FE00280AD0B7
:10322000D4F88000016D00E02046BDE8F041084779
:103230002046FFF756FFBDE8F0812046FFF751FF1B
:10324000C4F89050F7E7D4F86CC02023BCF1010F0C
:103250007ED15FEAC06C7BD55FEAC16C78D5102067
:10326000386220688068400673D5D4F880107C4AA4
:103270000868904234D07A4A1832904230D0784A66
:10328000303290422CD0764A4832904228D0744A4C
:103290006032904224D0724A7832904220D0704AF4
:1032A000903290421CD06E4AA832904218D06D4A9B
:1032B000904215D06B4A1832904211D0694A303290
:1032C00090420DD0674A4832904209D0654A603238
:1032D000904205D0634A7832904201D0614A9032E0
:1032E00040680004000CA6D0B4F85C208242A2D949
:1032F000A4F85E00C869B0F5807F2FD0216851E83E
:10330000000F20F4807041E80002002AF6D1206806
:10331000083050E8001F21F0010140E80012002AA7
:10332000F5D12068083050E8001F21F0400140E846
:103330000012002AF5D1C4F88C30E566216851E806
:10334000000F20F0100041E80002002AF6D101E051
:1033500040E00BE0D4F88000FDF726FC2667B4F8C7
:103360005C00B4F85E10401A81B22FE0B4F85C0043
:10337000B4F85E10B4F85E20401A81B2002AB2D0D0
:103380000029B0D0226852E8000F20F4907042E883
:103390000007002FF6D1344F206800F1080050E8F4
:1033A000002F02EA070240E8002CBCF1000FF3D125
:1033B000C4F88C30E5666567206850E8002F22F07D
:1033C000100240E80023002BF6D126672046FFF7C5
:1033D00038FE30E7C60209D5560207D54FF48010F3
:1033E00038622046BDE8F041FFF77ABE06060AD5EE
:1033F00001F0800602F40002164304D0A16F0029F8
:103400007FF412AF17E7420611D54A060FD52046C2
:10341000026852E8001F21F0400142E80014002C2D
:10342000F6D1C0F88830856700F0E8F903E70202BA
:1034300006D54A0004D52046BDE8F041FFF74FBE4F
:10344000C001C6D50029C4DA2046BDE8F041FFF727
:10345000F9BD000001000010200100040343000832
:103460001000024010040240FEFFFFEF10B5040000
:1034700003D0D4F8880010B107E0012010BD00206F
:1034800084F88400204600F027F82420C4F888003F
:103490002068016821F001010160A06A10B1204696
:1034A00000F076FE204601F0C9F90128E6D0206838
:1034B000416821F4904141602068816821F02A012F
:1034C00081602068016841F0010101602046BDE88B
:1034D000104000F0C1BE00002DE9F04FB5B0074626
:1034E00014212EA8FCF758FFB8216846FCF754FFBA
:1034F00038680225654A0726624C0127DFF888A153
:10350000002190424FF4806B3AD100201E9101229D
:103510008846CDE900206846FEF7D0F908B1FDF7EE
:1035200041FB58481030016841F01001016000680B
:1035300000F010003390206840F001002060206807
:103540002EA9444600F0010033904FF400702E90F5
:10355000CDE92F58CDE931865046FDF729FECDF84B
:10356000B8B02EA9CDE93146CDE92F575046FDF729
:103570001FFE002225201146FDF7EEFF25203DE02D
:10358000434ADFF8109190423DD100208846022244
:103590001D91CDE900206846FEF790F908B1FDF7CE
:1035A00001FBD9F8001041F40031C9F80010D9F836
:1035B000000000F400303390206840F001002060EB
:1035C00020682EAA03243194042100F0010082E82F
:1035D0002201CDE932602EA95046FDF7E9FD2EA962
:1035E000082081E8A100CDE931465046FDF7E0FD15
:1035F000002226201146FDF7AFFF2620FDF79EFF93
:1036000035B0BDE8F08F244A9042F9D100208846B9
:1036100002221D91CDE900206846FEF74FF908B15E
:10362000FDF7C0FAD9F8001041F48021C9F8001064
:10363000D9F8000000F480203390206840F00200A8
:10364000206020682EA9CDF8B8B000F00200134C1D
:10365000CDE92F583195CDE932602046FDF7A8FD20
:103660002EA94FF4006081E8A100CDE93156204633
:10367000FDF79EFD002227201146FDF76DFF272054
:10368000BCE70000E044025800000258001001406E
:1036900000440040E844025800480040000402583A
:1036A00030B4D0F88C30202B02D0022030BC7047D0
:1036B000A9B1A2B10B4D00240368C466AB420BD084
:1036C0005B681B0208D5046854E8003F43F0806340
:1036D00044E80035002DF6D130BC01F09DBA012040
:1036E000E4E70000000C005830B400681349884239
:1036F00022D1134A0024134950790B5C10B11328CE
:1037000007D014E0AA2B12D030BC0F480122FFF7DB
:10371000C7BF552B09D10B4B143300200D5C1D5432
:10372000401C1428FADB01209071547101E0401C08
:10373000507150790144E7E730BC704700480040C1
:10374000000000244C000024E80100242DE9F84387
:103750000446D0F88800984616460D46202802D028
:103760000220BDE8F883A5B19EB10021C4F89010F5
:103770002120C4F888001834FDF728FE814654F84B
:10378000100CA687E6872027183CB0F5805F02D092
:1037900003E00120E5E7206910B12E46002510E086
:1037A00000260EE08021204601F0BEFAC0B9DEB14D
:1037B00016F8010B21688862B4F85600401EA4F880
:1037C0005600B4F856004B464FF00002CDF800808A
:1037D0000028E7D14FF04001204601F0A5FA48B19A
:1037E000C4F888700320BCE735F8020B2168C0F3E9
:1037F0000800E0E7C4F888700020B2E700680349D9
:10380000884202D1024900208870704700100140B0
:1038100000000024FEE7000010B588B0174800241F
:1038200015494FF4897240F2E733009401940294F1
:10383000039404940594069480E81600C0E90334C8
:103840008461FFF7EFF908B172B6FEE74FF48050DC
:1038500000900A486946FFF785FA08B172B6FEE79C
:10386000064804A904940694FFF780F9002801D0C3
:1038700072B6FEE708B010BD0004004074000024DA
:103880001748002110B5154C0C224FF4E1330460A9
:10389000C0E90131C160C0E904128161C161016206
:1038A00041628162FFF7E2FD08B172B6FEE70C48A3
:1038B0000021FFF7EEFB08B172B6FEE708480021D1
:1038C000FFF7C1FB08B172B6FEE70548FFF799FBA9
:1038D000002801D072B6FEE710BD000000100140C4
:1038E000C00000241748002110B5154C0C224FF4DD
:1038F000E1330460C0E90131C160C0E904128161B3
:10390000C161016241628162FFF7B0FD08B172B628
:10391000FEE70C480021FFF7BCFB08B172B6FEE7DA
:1039200008480021FFF78FFB08B172B6FEE7054893
:10393000FFF767FB002801D072B6FEE710BD00005C
:1039400000440040540100241748002110B5154CD4
:103950000C224FF4E1330460C0E90131C160C0E9D9
:1039600004128161C161016241628162FFF77EFDE3
:1039700008B172B6FEE70C480021FFF78AFB08B1D8
:1039800072B6FEE708480021FFF75DFB08B172B68A
:10399000FEE70548FFF735FB002801D072B6FEE7C9
:1039A00010BD000000480040E8010024FEE770B5AB
:1039B000002205464FF6FF704AF201040DE0AB5CB1
:1039C00058400023C6074FEA500000D060405B1CFF
:1039D000DBB2082BF6D3521C92B28A42EFD370BDF1
:1039E000FEE770472DE9F047454D044689464FF004
:1039F000000A2868C04380070AD0414E283E30683C
:103A000020F080603060FDF7E1FC0746B04608E03A
:103A10000120BDE8F08700BFFDF7D8FCC01B0228DD
:103A200067D8D8F800000001F6D4206829684FF460
:103A3000FE0721F47C313E0241EA00302860207A02
:103A4000A389B4F804C040022D4D2D495B1E227C91
:103A5000ACF1010C1035091DA0F5007080B2521EAA
:103A6000CCF3080C07EA034340EA0C00184306EACB
:103A70000262104328600868626920F0C0001043A9
:103A800008600A68A06922F0200202430A60281D2B
:103A90000A6822F010020A6002684FF6F873E469BF
:103AA0009A4342EAC40202600868B9F1000F40F08C
:103AB00010020A6011D00868B9F1010F11D040F46A
:103AC00000100860D8F80000444640F08060C8F854
:103AD0000000FDF77BFC05460DE0086840F400207F
:103AE000EFE740F48010ECE7FDF770FC401B022884
:103AF00001D903208DE720680001F5D5504688E7FD
:103B0000284402582DE9F047454D044689464FF0B8
:103B1000000A2868C04380070AD0414E283E30681A
:103B200020F080503060FDF751FC0746B04608E0B9
:103B30000120BDE8F08700BFFDF748FCC01B02284C
:103B400067D8D8F800008000F6D4208829684FF4A0
:103B5000FE0721F07C713E0241EA00502860207A85
:103B6000A389B4F804C040022D4D2D495B1E227C70
:103B7000ACF1010C1835091DA0F5007080B2521E81
:103B8000CCF3080C07EA034340EA0C00184306EAAA
:103B90000262104328600868626920F440601043A4
:103BA00008600A68A06922F4007202430A60281DB6
:103BB0000A6822F480720A6002684FF6F873E469BA
:103BC0009A4342EAC40202600868B9F1000F40F467
:103BD00080720A6011D00868B9F1010F11D040F06D
:103BE00080700860D8F80000444640F08050C8F863
:103BF0000000FDF7EBFB05460DE0086840F480008F
:103C0000EFE740F40000ECE7FDF7E0FB401B022883
:103C100001D903208DE720688000F5D5504688E75C
:103C20002844025870470000114A002310B515E0DF
:103C3000362809D039280BD03C2812D0D4783F2818
:103C400013D044F0800406E0D47844F0010402E08C
:103C5000D47844F00204D470401C5B1C8B42E7D340
:103C600010BDD47844F00804F5E744F00404F2E70A
:103C70000000002401F0C8B8164810B501F0FEFBA2
:103C8000154801F0FBFB15A001F0F8FB1F4801F0FF
:103C9000F5FB1FA001F0F2FB27A001F0EFFB31A024
:103CA00001F0ECFB3CA001F0E9FB48A001F0E6FBD1
:103CB00054A001F0E3FB614801F0E0FB60A001F0DB
:103CC000DDFB6CA001F0DAFBBDE81040704801F0AC
:103CD000D5BB0000886300081862000855415254A3
:103CE0002053454E443A615C725C6E202020416353
:103CF00063656C65726174696F6E2063616C696283
:103D0000726174696F6E2E0D0A0000002063000856
:103D1000554152542053454E443A555C725C6E20D6
:103D2000202042616E64776964746820696E6372F2
:103D3000656173652E0D0A00554152542053454E5E
:103D4000443A755C725C6E20202042616E64776933
:103D500064746820726564756374696F6E2E0D0AF1
:103D600000000000554152542053454E443A425CF5
:103D7000725C6E202020426175642072617465203F
:103D8000696E6372656173656420746F20313135CB
:103D90003230302E0D0A0000554152542053454E0A
:103DA000443A625C725C6E2020204261756420722D
:103DB00061746520726564756374696F6E20746FD9
:103DC00020393630302E0D0A000000005541525483
:103DD0002053454E443A525C725C6E202020546859
:103DE000652072657475726E207261746520696EEB
:103DF0006372656173657320746F203130487A2E69
:103E00000D0A0000554152542053454E443A725C0D
:103E1000725C6E2020205468652072657475726E25
:103E2000207261746520726564756374696F6E20B9
:103E3000746F2031487A2E0D0A000000BC62000821
:103E4000554152542053454E443A635C725C6E2097
:103E5000202052657475726E20636F6E74656E7487
:103E60003A20616363656C65726174696F6E2E0DD3
:103E70000A000000554152542053454E443A685CB4
:103E8000725C6E20202068656C702E0D0A000000A8
:103E900068620008FDF7A0BA30B59DB04C216846B5
:103EA000FCF77AFA202113A8FCF776FA0220FDF736
:103EB00085FB1D48016821F4404101600168002430
:103EC00001F440411B9101688904FCD502200A904D
:103ED0002C230990C20301210C25CDE90012CDE964
:103EE0000B03CDE90D10CDE910540F9068461294E4
:103EF000FEF792FB08B172B6FEE740201A90082345
:103F00000501CDE9163013ABCDE918053F21032299
:103F100083E8160013A81146FEF76EF9002801D0B9
:103F200072B6FEE71DB030BD184802582748F0B5FC
:103F3000274A016841F470010160106800F00F0029
:103F4000072804D2106820F00F00C01D106021491E
:103F50000020204C10340B681F4D43F001030B6010
:103F600020600B682B400B60136803F00F03072BD6
:103F700004D9136823F00F03DB1D1360154C174A97
:103F80001834174B261D371D2060124C154D283450
:103F90003060261D3860371D23603B1D35601C1DB9
:103FA0003A60251D2E1D1860331D22602860326086
:103FB00018600A6843F2D204064B0B4D22F48022AB
:103FC00060330A6018602C60F0BD000088ED00E0EE
:103FD00000200052004402587FEDF6EA8002010101
:103FE000000202020000FF01004000520148FEF7FB
:103FF00038BF0000740000242DE9F0472D4B4FF02E
:10400000804A2D4D026898422C4E2D4F2D4C09D0E0
:10401000504507D0A84205D0B04203D0B84201D0E5
:10402000A04205D1D1F804C022F070024CEA02028D
:10403000DFF894C0DFF894809842DFF8949015D0B0
:10404000504513D0A84211D0B0420FD0B8420DD085
:10405000A0420BD0604509D0404507D0484505D067
:104060001C4DA84202D01C4DA84203D1CD6822F4B9
:1040700040722A434D6922F080022A43026098422E
:104080008A68C2620A68826207D0A04205D0604591
:1040900003D0404501D0484501D1096901630121A0
:1040A00041610169C90703D0016921F00101016182
:1040B000BDE8F08700000140000400400008004017
:1040C000000C004000040140004001400044014059
:1040D0000048014000E0004000E4004042EA0322C2
:1040E00083680A4323F47F410A43826070470000DB
:1040F000034B82681A400A4342F00701816070470F
:104100008FFFCFFF10B5036A046A23F00A0324F07F
:104110000104046284690B4324F0F00141EA0211B6
:104120008161036210BD10B5036A046A23F0A00325
:1041300024F010040462846943EA011124F47043FA
:1041400043EA02328261016210BD000030B5416E67
:10415000B9B101680D4B03F108048A688968C2F39C
:104160004262490F5D5C615C2D01B5FBF1F1A0F885
:104170006A10995CA25C0901B1FBF2F1A0F8681029
:1041800030BD0121A0F86A10F8E70000F85F0008D0
:1041900090F82810090706D50168836B4A6822F455
:1041A00000421A434A6090F82810C90706D00168F7
:1041B000C36A4A6822F400321A434A6090F8281011
:1041C000890706D50168036B4A6822F480321A43D6
:1041D0004A6090F82810490706D50168436B4A6881
:1041E00022F480221A434A6090F82810C90606D5A6
:1041F0000168C36B8A6822F480521A438A6090F87F
:104200002810890606D50168036C8A6822F40052DA
:104210001A438A6090F82810490611D50168436C4A
:104220004A6822F480121A434A60416CB1F5801F3B
:1042300006D10168836C4A6822F4C0021A434A60BE
:1042400090F82810090606D50168C26C486820F469
:1042500000201043486070472DE9F84300250446CC
:10426000C0F89050FDF7B2F88046206820266FF025
:104270007E470068000713D50022434631042046DC
:10428000009700F051FD58B1216851E8000F20F06F
:10429000800041E80002002AF6D1C4F8886021E0DD
:1042A00020680068400722D5002243464FF4800171
:1042B0002046009700F038FDC8B1206850E8001F84
:1042C00021F4907140E80012002AF6D120680830ED
:1042D00050E8001F21F0010140E80012002AF5D14A
:1042E000C4F88C60032084F88450BDE8F883C4F8D7
:1042F0008860C4F88C60E5662567002084F88450E7
:10430000F3E710B5806B0021A0F85E10A0F85610FE
:10431000FEF7E7FE10BD000010B5026852E8001F6E
:1043200021F4907142E80013002BF6D10E4B026885
:10433000083252E8001F194042E80014002CF6D160
:10434000C16E012908D1026852E8001F21F0100156
:1043500042E80013002BF6D100212022C0F88C2067
:10436000C166416710BD0000FEFFFFEF10B5D0F839
:104370008C10B0F860202229016804D0886940F0D0
:104380000800886110BD496A836D11401980816DF4
:10439000891C8165B0F85E10491EA0F85E10B0F867
:1043A0005E100029EED1016851E8002F22F49072CE
:1043B00041E80023002BF6D10168083151E8002FB5
:1043C00022F0010241E80023002BF5D1184B002117
:1043D00002682024C0F88C40416701679A420BD0E4
:1043E0005268120208D5036853E8002F22F0806259
:1043F00043E80024002CF6D1C26E012A02D0FFF758
:1044000073F910BDC166026852E8001F21F0100167
:1044100042E80013002BF6D10168CA69D243D206E4
:1044200001D410220A62B0F85C10FEF70AFE10BD3B
:10443000000C00582DE9F04704460068C569D0F823
:1044400000A0D0F80880D4F88C10B4F8606022295D
:1044500005D0816941F008018161BDE8F087B4F8B9
:1044600068704FF0000975E02068A16D406A304027
:104470000880A06D801CA065B4F85E00401EA4F802
:104480005E002068C569690730D0E9070AD05FEA95
:10449000CA5107D501210162D4F8900040F0010013
:1044A000C4F89000A8070BD55FEAC87008D021684F
:1044B00002200862D4F8900040F00400C4F8900094
:1044C00068070BD55FEAC87008D02168042008622D
:1044D000D4F8900040F00200C4F89000D4F89000A6
:1044E00020B12046FEF7FDFDC4F89090B4F85E00C0
:1044F00080BB216851E8000F20F4807041E8000281
:10450000002AF6D1304A2068083050E8001F1140D8
:1045100040E80013002BF6D12C4B202120684A469E
:10452000C4F88C10C4F87490C4F8709098420BD002
:104530004068000208D5216851E8000F20F0806033
:1045400041E80003002BF6D1E06E012825D020467B
:10455000FFF7CAF80FB1A80686D4B4F85E000028A9
:104560003FF47BAFB4F8681081427FF676AF2068E5
:10457000083050E8001F21F0805140E80012002A66
:10458000F5D113486067206850E8001F41F0200112
:1045900040E80012002AF6D15FE7E266206850E8A2
:1045A000001F21F0100140E80012002AF6D1206817
:1045B000C169C943C90601D410210162B4F85C1075
:1045C0002046FEF73EFDC5E7FEFFFFEF000C00585A
:1045D0006D43000810B5D0F88C10B0F86020222987
:1045E000016804D0886940F00800886110BD496AFC
:1045F000836D11401970816D491C8165B0F85E10A2
:10460000491EA0F85E10B0F85E100029EED10268D5
:1046100052E8001F21F4907142E80013002BF6D1FC
:104620000168083151E8002F22F0010241E800231F
:10463000002BF5D1184B002102682024C0F88C40D3
:10464000416701679A420BD05268120208D502688E
:1046500052E8003F23F0806342E80034002CF6D19A
:10466000C26E012A02D0FFF73FF810BDC166026892
:1046700052E8001F21F0100142E80013002BF6D190
:104680000168CA69D243D20601D410220A62B0F886
:104690005C10FEF7D6FC10BD000C00582DE9F04769
:1046A00004460068C569D0F800A0D0F80880D4F8A6
:1046B0008C10B4F86060222905D0816941F00801AE
:1046C0008161BDE8F087B4F868704FF0000975E0CB
:1046D0002068A16D406A30400870A06D401CA06544
:1046E000B4F85E00401EA4F85E002068C569690742
:1046F00030D0E9070AD05FEACA5107D5012101622B
:10470000D4F8900040F00100C4F89000A8070BD541
:104710005FEAC87008D0216802200862D4F89000CF
:1047200040F00400C4F8900068070BD55FEAC87039
:1047300008D0216804200862D4F8900040F00200FC
:10474000C4F89000D4F8900020B12046FEF7C9FCD0
:10475000C4F89090B4F85E0080BB216851E8000F67
:1047600020F4807041E80002002AF6D1304A206827
:10477000083050E8001F114040E80013002BF6D12C
:104780002C49202320684A46C4F88C30C4F8749021
:10479000C4F8709088420BD04068000208D52168A8
:1047A00051E8000F20F0806041E80003002BF6D1B3
:1047B000E06E012825D02046FEF796FF0FB1A8062F
:1047C00086D4B4F85E0000283FF47BAFB4F86810DC
:1047D00081427FF676AF2068083050E8001F21F054
:1047E000805140E80012002AF5D113486067206824
:1047F00050E8001F41F0200140E80012002AF6D1E5
:104800005FE7E266206850E8001F21F0100140E8F1
:104810000012002AF6D12068C169C943C90601D433
:1048200010210162B4F85C102046FEF70AFCC5E7CF
:10483000FEFFFFEF000C0058D54500082DE9F043BE
:1048400004468068E24E87B0E24B2168D4E9042731
:10485000D4F81CC010430A68002547EA0C07384307
:10486000324002430A602068E268416821F4405106
:10487000114341602268A1699A4201D0206A014334
:104880009668DFF854C3D54FD54806EA0C060E43A8
:1048900096602168666ACA6A22F00F023243CA62D1
:1048A0002268BA420ED1006800F0380018286FD094
:1048B0007ADCB8B308286CD010286BD18BE028289C
:1048C00068D18EE0C7498A4209D1006800F007002C
:1048D00006285FD2DFE800F0507D7F818385C249E2
:1048E0008A4209D1006800F0070006287BD2DFE881
:1048F00000F0437072747678BC498A4209D100682E
:1049000000F0070006286ED2DFE800F03663656726
:10491000696BB7498A420BD1006800F0070006288E
:1049200061D200E043E0DFE800F0275456585A5CBB
:10493000B0498A4206D1006800F0380018284CD0EF
:10494000B7DD31E0AC498A4209D1006800F00700C8
:10495000062848D2DFE800F0103D3F414345A74913
:104960008A420BD1006800F0070006283BD2DFE83E
:1049700000F0033032343638002035E0A0498A4256
:1049800009D1006800F03800182826D091DD0BE02E
:1049900023E01EE027E09B498A420AD1006800F02C
:1049A0003800182819D084DD202888D11CE0012087
:1049B0001AE09A4217D18A48001D006800F00700EB
:1049C000062810D2DFE800F0030507090B0D0220CE
:1049D0000AE0042008E0082006E0102004E020207F
:1049E00002E0402000E080208749DFF820829A42E0
:1049F000874A4FF400434FEA21174FF000064ED18B
:104A000010281AD006DC022809D004280BD0082868
:104A10007ED10DE020283ED0402879D13DE0FCF742
:104A2000F7FD014610E06846FCF704FE01990BE033
:104A300003A8FCF7A1FE049906E01068800605D5DE
:104A40001068C0F3C100C140002970D0606A676877
:104A500038F8102007EB4703B1FBF2F0834257D838
:104A6000B0EB073F54D8002308461946FBF74AFC31
:104A700002467808130E120243EA012110183A4642
:104A800071410023FBF73EFC624AA0F54071914260
:104A90003ED821688FE03946D8E71946D6E7D4F8E2
:104AA0001CC04FF6EF799C4546D1082819D005DC8B
:104AB00058B101280CD0042875D10DE0102815D06C
:104AC000202835D040286ED134E0FDF7E5FC01E028
:104AD000FDF7F4FC014610E06846FCF7ABFD0199D8
:104AE0000BE003A8FCF748FE049906E01068800676
:104AF00004D51068C0F3C100C140C1B1636A6068E9
:104B000038F81330B1FBF3F1490001EB500100E03C
:104B100049E0B1FBF0F0A0F11001494543D84FF650
:104B2000F0732168C0F342021840104343E043E0B1
:104B30003946E3E71946E1E7082819D005DC58B102
:104B400001280CD004282ED10DE0102815D02028E3
:104B50002BD0402827D12AE0FDF79EFC01E0FDF78D
:104B6000ADFC014610E06846FCF764FD01990BE0DE
:104B700003A8FCF701FE049906E01068800604D53E
:104B80001068C0F3C100C140B1B1636A606838F811
:104B90001330B1FBF3F101EB5001B1FBF0F0A0F1E8
:104BA0001001494505D9012506E03946EDE71946CA
:104BB000EBE7216880B2C8600120A4F86A00A4F87D
:104BC000680028466667A66707B0BDE8F083000066
:104BD000F369FFCF000C0058FFF4FF1100100140F3
:104BE000544402580044004000480040004C00403B
:104BF000005000400014014000780040007C00405C
:104C000000180140001C01400090D003E05F000844
:104C100000440258FFFC0F0070B5836800248165D2
:104C20004FF48056A0F85C20B342A0F85E204FF00D
:104C3000FF01446704D1036903BB40F2FF111DE08B
:104C40004FF07F05C3B1B3F1805F1AD0A0F8604088
:104C50002221C0F89040C0F88C100168083151E85A
:104C6000003F43F0010341E80034002CF5D1416ED0
:104C7000B1F1005F0CD02FE0036933B9A0F86010E8
:104C8000E6E7016909B13F21F8E7A0F86050DFE7E6
:104C9000B0F8681091421FD88168B14201D1016912
:104CA000B9B11D490269416742B1026852E8001F6B
:104CB00041F4807142E80013002BF6D101680831FD
:104CC00051E8002F42F0805241E80023002BF5D13B
:104CD00020E012494167F1E78168B14201D10169E1
:104CE00069B10F49026941675AB1016851E8002F63
:104CF00042F4907241E80023002BF6D10AE0094902
:104D00004167026852E8001F41F0200142E80013A9
:104D1000002BF6D1002070BD9D46000835440008E8
:104D2000D54500086D4300082DE9F0479946174620
:104D30000D460446089E4FF0000833E0701C31D049
:104D4000FCF744FBA0EB0900B04218D8BEB12068C4
:104D50000168490726D5802D24D0402D22D0C16975
:104D6000C94309070DD4082505622046FFF7D4FA88
:104D7000C4F89050012084F88480BDE8F0870320B7
:104D8000FBE7C069C04300050CD421684FF4006004
:104D900008622046FFF7C0FA2021C4F8901084F87A
:104DA0008480ECE72068C06935EA000004D0002068
:104DB000B842C3D00020E0E70120F9E70148FEF740
:104DC00091B90000C00000240148FEF78BB9000033
:104DD000540100240148FEF785B90000E8010024D1
:104DE00010B5084C2068C169C943890606D4406AD9
:104DF000C0B200F015F92168042008620B20216878
:104E0000086210BD0C0000208AB2014601486423EC
:104E1000FEF79CBC0C000020FEE70000F0B585B05A
:104E2000064614216846FBF7B7FA0224194F0025FD
:104E3000402007218DE83100CDE90341694638461D
:104E4000FCF7B6F9802069468DE831003846FCF75A
:104E5000AFF9114C0C21114820602046C4E90165CE
:104E6000E560C4E90451A561E561FEF7FFFA08B108
:104E7000FBF798FE082201214720FCF76DFB472035
:104E8000FCF75CFB2068016841F02001016005B07F
:104E9000F0BD0000000802580C0000200014014082
:104EA00018B103498861002070476FF00500704712
:104EB00024000024062802D96FF005007047034A39
:104EC0000023106218461170D3617047240000243B
:104ED0002DE9FC5F0D460646284490286FF0050733
:104EE0007AD2484C380C00EA45094FF0FF0B2246B5
:104EF0004FF0AA0E6FF0040AD4F820C0F3B2107875
:104F0000C6F307215268BCF1070F79D2DFE80CF035
:104F10000415364C78153600042D71D8EAB38DF897
:104F200000B027278DF801E068468DF802708DF8F3
:104F300003308DF8041005215EE072B309F105021B
:104F4000B2F5807F36D88DF8000003228DF801205D
:104F50002F0A8DF8021006218DF8047068468DF82E
:104F600003308DF8055000F099FA010A8DF806100B
:104F70008DF807000821626868463DE0032D3FD8A0
:104F8000256955B18DF800B04FF0270C8DF801E080
:104F90008DF802C08DF8033000E01EE005228DF888
:104FA00004106946A84728E0E768B7B1B9F5807FE3
:104FB0004B4603D96FF00300BDE8FC9F4006124A40
:104FC000F1B2000EB847012817D162692AB10E4923
:104FD000002001F580730BE012E05046ECE700BFC3
:104FE00000EB060C31F81070401C80B223F81C70E6
:104FF000A842F5D329463046904700206662DBE799
:105000003846D9E7240000247C02002418B1034963
:105010004861002070476FF00500704724000024AD
:105020002DE9FC413B4C6169002955D03A490026E5
:10503000E3695A1CC854E261206A072865D2DFE898
:1050400000F0042F6767042F67000878552804D004
:10505000521E3148491CE2613CE00B2A55D30A2517
:105060002D4F00204FEA000317F803C05B1CAB4232
:105070006044C0B2F8D38B7A8342E9D148880422D5
:10508000ADF800008888ADF80200C888ADF80400CB
:105090000889ADF8060048786946FBF707FD37E058
:1050A000022A32D948780328D2D18878401D90420C
:1050B00012D888180D46921E91B230F8020C47BAE9
:1050C000154800F0EBF9874208D0E269691C1248E4
:1050D000521EE261FBF747F9BDE8FC81A978002286
:1050E000DFF838C0606A49080AE000BF05EB4203F8
:1050F0001718521CB3F8033092B25BBA2CF8173071
:105100008A42F3D36269904702E0B2F5807FE3D12F
:10511000E661E1E7240000247C0200247C030024F3
:1051200018B103494860002070476FF005007047D0
:10513000240000240F4B70B50446186A6FF0050573
:10514000042811D020B206220021FBF7FAFB58B147
:10515000996959B114208847A1B21F2000F018F9AD
:10516000002800D0681070BD284670BD6FF00400A4
:1051700070BD00002400002470B5134D04466FF08C
:105180000503286A04280ED020B21A0D0121FBF76E
:10519000D8FB40B169204BF2885100F0F9F86FF06C
:1051A000020660B901E0184670BDA96949B1142032
:1051B0008847A1B2022000F0EBF80028F4D0304676
:1051C00070BD6FF0040070BD2400002470B5134D55
:1051D00004466FF00503286A04280ED020B20D2281
:1051E0000121FBF7AEFB40B169204BF2885100F082
:1051F000CFF86FF0020660B901E0184670BDA969EA
:1052000049B114208847A1B2032000F0C1F800285A
:10521000F4D0304670BD6FF0040070BD240000244F
:10522000F8B50722044600B20121FBF78AFB0028EB
:105230006FF0050027D01B4D461C296A042908D0B1
:1052400069204BF2885100F0A3F86FF0020728BBE9
:105250001AE0062C01D0022C15D16A6802B3FF2196
:105260008DF80010AA208DF80100062C02D0022C27
:1052700002D004E0632000E064208DF802000321E6
:10528000684690470020F8BDA96949B114208847B5
:10529000A1B2042000F07CF80028F4D03846F8BD14
:1052A0003046F8BD24000024F8B5164C6FF0040514
:1052B000206A042808D069204BF2885100F068F871
:1052C0006FF00206D0B90FE06268CAB1FF208DF816
:1052D0000000AA218DF801106723684603218DF88C
:1052E000023090470020F8BDA16949B114208847D9
:1052F0000121084600F04CF80028F4D03046F8BDF3
:105300002846F8BD2400002470B50F4C206A0428FC
:1053100008D069204BF2885100F03AF86FF002058E
:1053200068B902E06FF0050070BDA16949B11420B1
:1053300088470721012000F02BF80028F4D02846E8
:1053400070BD6FF0040070BD2400002470B50F4CD8
:10535000206A042808D069204BF2885100F018F820
:105360006FF0020568B902E06FF0050070BDA16939
:1053700049B1142088470021012000F009F80028D5
:10538000F4D0284670BD6FF0040070BD24000024E6
:105390002DE9FC5F90286FF0050969D2364CCAB23E
:1053A000090A4FF0FF0A25464FF0AA0B6FF00406DA
:1053B000D4F820C0C7B22B786D68BCF1070F57D264
:1053C000DFE80CF00413304256133000DDB38DF8E3
:1053D00000A068468DF801B08DF802708DF80410B9
:1053E00005218DF80320A84744E065B3050A8DF830
:1053F000003006208DF801008DF8041001468DF86C
:10540000025068468DF803708DF8052000F046F8CC
:10541000010A8DF806108DF80700082162686846B9
:10542000904727E0246974B18DF800A018468DF8E4
:1054300001B08DF802708DF8032005228DF804105C
:105440006946A04716E011E0A4687CB18DF8002001
:105450005A068DF80110C1B2100E6A460223A04709
:10546000012807D06FF00200BDE8FC9F3046FBE743
:105470004846F9E70020F7E7240000240FB4054B65
:1054800010B503A9044A029800F000F910BC5DF8B9
:1054900014FB0000BD5D000808000020F0B5094EB7
:1054A000FF2300221C4606F5807705E0855C5D4001
:1054B000735D63407C5D521C8A42F7DB44EA032043
:1054C000F0BD000018600008090700284FEA1161CC
:1054D00004DB00F1E02080F80014704700F00F00BA
:1054E00000F1E02080F8141D704702E008C8121F88
:1054F00008C1002AFAD170477047002001E001C1BD
:10550000121F002AFBD170472DE9FF5F82B00021F6
:10551000DDE90430020DDDF840B0034318D044F655
:105520001050A2F2FF3242431514119801281FD0E7
:10553000A5EB0B00401C5FEA000A4FF000064E4F3F
:10554000DFF83891B046504615D5CAF1000413E093
:10555000119801244AA3012801D16FEA0B01029896
:10556000119AC0E90031C0E9024206B0BDE8F09FDF
:10557000CBF10000DFE704460021404A491842EB26
:105580000450CDE9001012E0E00707D032463B4658
:1055900040464946FAF7E7FF8046894632463B4691
:1055A00010461946FAF7DFFF06460F466410002C36
:1055B000EAD1DDE90401DDE90023BAF1000F06DAE2
:1055C000FAF7D1FF42464B46FAF7CDFF05E0FBF76D
:1055D0003CF842464B46FBF738F804460E4600229C
:1055E000284BFBF7B9F803D84FF0FF30014607E02E
:1055F0000022254B20463146FAF70EFFFBF794F8C0
:10560000102409E0002C0ADB0A220023FAF77AFEB4
:10561000039B30321A55641E50EA0102F2D1641C19
:10562000039AC4F111031444119A012A03D00122F0
:1056300008430DD10AE0084304D000204FF0110BBD
:10564000119072E7A3EB0B056D1E0DE05B4504DDC9
:105650004FF0000205F1010504E003DA4FF000020B
:10566000A5F10105002AECD002981199C0E9023198
:10567000C0E9004579E70000000014400000F03F59
:10568000300000000000F0430000E03F2DE9FF4F34
:1056900095B09B468946064600250FE2252877D11E
:1056A00000242746F84A0121059400E0044316F837
:1056B000013F203B01FA03F01042F7D130782A284D
:1056C00011D06FF02F033078A0F13002092A16D8DC
:1056D000059A44F0020402EB820203EB42021044FA
:1056E000761C0590EFE759F8042B0592002A03DA9F
:1056F000504244F40054059044F00204761C307883
:105700002E2816D116F8010F44F004042A280DD0D3
:105710006FF02F023078A0F13003092B09D807EB86
:10572000870302EB4303C718761CF3E759F8047BA1
:10573000761C30786C280FD006DC4C2817D06828EF
:105740000DD06A2814D104E0742810D07A280FD123
:105750000DE044F400140AE044F4801401E044F441
:1057600040147278824202D104F58014761C761CB3
:10577000307866280BD013DC582877D009DC002855
:1057800075D04528F6D04628F4D047281AD19DE197
:1057900018E0632835D0642879D0652812D195E1C6
:1057A000702873D008DC6728F1D069286FD06E2884
:1057B0000DD06F2806D1B5E073282CD0752875D090
:1057C000782874D05A46179990476D1C75E1C4F338
:1057D0000250022809D003280DD0D9F8001004285F
:1057E0000DD00D6009F1040967E1D9F80010EA173E
:1057F000C1E90052F6E7D9F800100D80F2E70D700C
:10580000F0E719F8041B8DF8001000208DF8010056
:10581000EA46012003E059F804AB4FF0FF3061077E
:105820004FF0000102D40DE008F101018846B942B1
:105830000FDA8045F8DB1AF808100029F4D108E0E7
:1058400008F1010188468142FADB1AF808100029A4
:10585000F6D105985B46A0EB080721463846179A13
:1058600000F094FA284400EB080507E04DE029E138
:105870000DE01AF8010B5A4617999047B8F1010844
:10588000F7D25B4621463846179A13E142E00A22D6
:105890000092C4F302524FF0000A022A08D059F8CD
:1058A00004CB032A4FEAEC710AD00DE029E02AE08C
:1058B00009F1070121F00702F2E802C1914609E06F
:1058C0000FFA8CFC4FEAEC71042A03D14FFA8CFCDE
:1058D0004FEAEC71002907DA0A460021DCF1000CDE
:1058E00061EB02012D2202E0220504D52B228DF866
:1058F0000420012203E0E20701D02022F7E79046CE
:1059000059E00A2102E010220DE010214FF0000AB8
:1059100000910BE010224FF0000A44F00404082725
:10592000009203E008224FF0000A0092C4F30252F2
:10593000022A05D059F804CB0021032A08D009E037
:1059400009F1070121F00702F2E802C1914605E0E2
:105950001FFA8CFC042A01D10CF0FF0C4FF0000858
:10596000220728D5702806D0009B83F0100353EA45
:105970000A0305D00EE040228DF80420012208E041
:105980005CEA010206D030228DF804208DF8050073
:1059900002229046009B83F0080353EA0A030AD1CF
:1059A0005CEA010201D1620705D530228DF804209E
:1059B0004FF001087F1E582804D034A003900EA891
:1059C00002900DE036A0F9E753466046009AFAF7D8
:1059D00099FC84460398825C0298401E02900270F3
:1059E0005CEA0100F0D1029806A9081A00F1200A29
:1059F000600702D524F4803400E00127574502DD1A
:105A0000A7EB0A0000E0002000EB0A0100900598D7
:105A10004144401A0590E00306D45B462146179A9C
:105A2000059800F0B3F90544002706E001A85A469E
:105A3000C05D179990476D1C7F1C4745F6DBE0035E
:105A40000CD55B462146179A059800F09FF905444E
:105A500004E030205A46179990476D1C0099481E63
:105A600000900029F5DC08E0029802995A46007877
:105A7000491C0291179990476D1CBAF10001AAF1D7
:105A8000010AF1DC65E10000092801003031323300
:105A9000343536373839616263646566000000006A
:105AA0003031323334353637383941424344454654
:105AB0000000000000F058F90544761C30780028FA
:105AC0007FF4ECAD19B02846BDE8F08F620700D432
:105AD000062709F1070222F0070CFCE80223E14641
