:020000040800F2
:10000000B00400207D0300089B2D00084B2C000845
:10001000992D0008EB070008DD3F000800000000F4
:10002000000000000000000000000000B92F0008E0
:10003000ED070008000000009D2D0008BB2F000800
:100040009703000897030008970300089703000828
:100050009703000897030008970300089703000818
:100060009703000897030008970300089703000808
:1000700097030008970300089703000897030008F8
:1000800097030008970300089703000897030008E8
:1000900097030008970300089703000897030008D8
:1000A00097030008970300089703000897030008C8
:1000B00097030008970300089703000897030008B8
:1000C00097030008970300089703000897030008A8
:1000D0009703000897030008D53F0008970300081E
:1000E000970300089703000800000000970300082A
:1000F0009703000897030008970300089703000878
:100100009703000897030008970300089703000867
:100110009703000897030008970300089703000857
:100120009703000897030008970300089703000847
:100130009703000897030008970300089703000837
:1001400000000000000000000000000000000000AF
:100150009703000897030008970300089703000817
:100160009703000897030008970300089703000807
:100170009703000897030008970300080000000099
:1001800097030008970300089703000897030008E7
:1001900097030008970300089703000897030008D7
:1001A0009703000897030008970300080000000069
:1001B00097030008970300089703000897030008B7
:1001C00097030008970300080000000000000000EB
:1001D000000000000000000097030008000000007D
:1001E000000000000000000000000000000000000F
:1001F00000000000000000009703000897030008BB
:100200009703000897030008000000009703000808
:100210009703000897030008970300089703000856
:10022000970300080000000097030008000000008A
:1002300097030008970300080000000097030008D8
:100240009703000897030008970300089703000826
:100250009703000897030008970300089703000816
:100260009703000897030008970300089703000806
:100270009703000897030008970300080000000098
:1002800097030008970300089703000897030008E6
:10029000000000009703000897030008000000001A
:1002A0000000000097030008970300089703000868
:1002B00097030008970300089703000897030008B6
:1002C00097030008970300089703000800F002F85E
:1002D00000F044F80AA090E8000C82448344AAF19C
:1002E0000107DA4501D100F039F8AFF2090EBAE89A
:1002F0000F0013F0010F18BFFB1A43F0010318475A
:100300003840000068400000103A24BF78C878C127
:10031000FAD8520724BF30C830C144BF04680C600B
:10032000704700000023002400250026103A28BF53
:1003300078C1FBD8520728BF30C148BF0B60704757
:10034000642900F02581732900F011820020704794
:100350001FB503F0D7FF1FBD10B510BD00F00BFA9D
:100360001146FFF7F5FF03F065FE00F029FA03B42C
:10037000FFF7F2FF03BC00F031FA000009488047A4
:1003800009480047FEE7FEE7FEE7FEE7FEE7FEE777
:10039000FEE7FEE7FEE7FEE704480549054A064B8F
:1003A0007047000069300008CD020008F002002408
:1003B000B0040020F0040024B000002053EA020C36
:1003C00000F069802DE9F04B4FF00006002B1FBFB5
:1003D000B3FA83F503FA05F424FA05F65E4012BF7A
:1003E0001643B2FA82F502FA05F4C5F120051EBFE4
:1003F00022FA05FC44EA0C04203556EA044C4FEA84
:10040000144418BF641C4FF000084FF000099042DC
:1004100071EB030C39D3002919BFB1FA81F701FA46
:1004200007F6B0FA80F700FA07F6C7F120071EBFFB
:1004300020FA07FC46EA0C062037B6FBF4FCA7EBD3
:100440000507103F07F01F0BCBF120062CFA06F62C
:100450000CFA0BFB44BFB3460026202FA4BF5E4618
:100460004FF0000B5BEA060C08BF4FF0010B19EBD5
:100470000B0948EB0608ABFB027C06FB02CC0BFB2E
:1004800003CCC01B71EB0C01C1E70B460246414691
:100490004846BDE8F08B13B54FF000004FF0000167
:1004A000AFF30080BDE81C40704700000FB41CB5DE
:1004B000074B06AA7B4469460090059800F02DF989
:1004C0000020694600F03CF91CBC5DF814FB0000FC
:1004D000890200002DE9F0410E460446002020620A
:1004E0002046E168884730B3252805D0D4E90121AA
:1004F0009047206A401CF2E7E168204600278847C1
:10050000050018D0A5F14100192802D820354FF474
:1005100000673246294620462760FFF711FF40B1A9
:10052000012804D0F61D26F007060836D8E7361D48
:10053000D6E72846DAE7206ABDE8F08170B50C46B8
:100540000546012A05D02878800600D5EA690023EF
:1005500002E0012305E05B1C934202D2E05C00282C
:10056000F9D1A869E618C01AA861286A1844286257
:100570002846AFF3008004E0D5E9012114F8010B0F
:100580009047B442F8D32846AFF3008070BD000016
:100590002DE9F0410646002410687529314616A55C
:1005A00010D0AFF30080002802DA404213A507E024
:1005B00031688A0701D512A502E0490704D511A5C3
:1005C000012401E0AFF3008000210A2206F1240794
:1005D00009E0B0FBF2FCB0FBF2F302FB1C00303090
:1005E00078541846491C0028F3D123462A46304641
:1005F000BDE8F04100F032B8000000002D0000001E
:100600002B000000200000004FF0000200B5134650
:1006100094469646203922BFA0E80C50A0E80C5022
:10062000B1F12001BFF4F7AF090728BFA0E80C50D3
:1006300048BF0CC05DF804EB890028BF40F8042BCC
:1006400008BF704748BF20F8022B11F0804F18BF39
:1006500000F8012B70477047704770472DE9F0474D
:100660000D4699469246044600F124080168880622
:1006700004D5E06921F01001216000E00120A842CA
:1006800001DD471B00E00027A1697A1902EB090090
:10069000081AA0612078C00602D42046AFF300807B
:1006A000002608E0D4E901211AF806009047206AE4
:1006B000401C761C20624E45F4DB2078C0060AD52B
:1006C0002046AFF3008006E0D4E9012130209047B6
:1006D000206A401C2062381EA7F10107F4DC07E005
:1006E000D4E9012118F805009047206A401C2062D7
:1006F000281EA5F10105F3DC2046AFF30080207829
:10070000000602D50220BDE8F0870120FBE70000CB
:1007100001694A1C02610878704700B58FB0CDE9C5
:1007200001310021059105497944CDE903101146B5
:100730006846FFF7CFFE0FB000BD0000E5FFFFFFEA
:100740000A6802F8010B0A60704710B5436913B1DB
:10075000AFF3008001E0FFF7F1FE012010BD127839
:1007600000F124010A7000224A700122EDE71168AD
:100770004FF0FF32E9E7754600F02CF8AE46050071
:100780006946534620F00700854618B020B5FFF7AC
:1007900003FEBDE820404FF000064FF000074FF089
:1007A00000084FF0000BAC46ACE8C009ACE8C0094B
:1007B000ACE8C009ACE8C00921F007018D467047DC
:1007C00010B50446AFF300802046BDE81040FFF7A7
:1007D000CEBD0000004870470000002401491820E9
:1007E000ABBEFEE7260002007047FEE77047EFF35E
:1007F000108072B6FEE70000F8B5044600F040FB3A
:100800000546002C00F0A08094F83500022840F046
:100810009D802768A34EA44887421CBFA3488742F7
:1008200027D0A34887421CBFA248874221D0A248B4
:1008300087421CBFA14887421BD0A14887421CBFEA
:10084000A048874215D0A04887421CBF9F488742D6
:100850000FD09F4887421CBF9E48874209D09E48C0
:1008600087421CBF9D48874203D09D48874240F085
:100870000481386820F01E003946386051F8140FA2
:1008800020F080000860F548874244D0F448874251
:100890001CBFF44887423ED0F34887421CBFF34850
:1008A000874238D0F24887421CBFF248874232D094
:1008B000F14887421CBFF14887422CD0F04887425C
:1008C0001CBFF048874226D0EF4887421CBFEF4844
:1008D000874220D0EE4887421CBFEF4887421AD09B
:1008E000EC4887421CBFED48874214D0EC48874251
:1008F0001CBFEC4887420ED0EB4887421CBFEB4838
:10090000874208D0EA4887421CBFEA48874202D0A3
:10091000E948874204D1206E016821F480710160AA
:10092000386820F001003860386810F0010F11D0ED
:1009300000F0A6FA401B0628F6D3202060650320AD
:1009400084F83500012093E0012094E08020606568
:1009500001208DE02068C14988421CBFC0498842FF
:1009600026D0C04988421CBFBF49884220D0BF4919
:1009700088421CBFBE4988421AD0BE4988421CBF6B
:10098000BD49884214D0BD4988421CBFBC49884239
:100990000ED0BC4988421CBFBB49884208D0BB4925
:1009A00088421CBFBC49884202D0B94988426CD1F8
:1009B000D4E9161202F01F023F2303FA02F28A6002
:1009C000A649884244D0A64988421CBFA54988420E
:1009D0003ED0A54988421CBFA449884238D0A449CA
:1009E00088421CBFA349884232D0A34988421CBF19
:1009F000A24988422CD0A24988421CBFA149884202
:100A000026D0A14988421CBFA049884220D0A049D5
:100A100088421CBFA04988421AD09E4988421CBF08
:100A20009E49884214D09E4988421CBF9D498842F5
:100A30000ED09D4988421CBF9C49884208D09C49E1
:100A400088421CBF9B49884202D09B4988420BD1F7
:100A5000D4E919014160E06E30B1016821F4807180
:100A60000160D4E91C014160012084F835000020B8
:100A7000002184F8341001B0F0BD3868B7423FF46B
:100A8000F9AE20F00E003946FCE6D4E91612B04269
:100A900002F01F023FF490AF012303FA02F24A6012
:100AA0008EE700BFB8040240100002402800024058
:100AB000400002405800024070000240880002409E
:100AC000A0000240B8000240100402402804024086
:100AD000400402405804024070040240A004024056
:100AE0008804024000286ED090F83510022968D1A1
:100AF00001685A4A91422CD0594A91421CBF594A26
:100B0000914226D0584A91421CBF584A914220D067
:100B1000574A91421CBF574A91421AD0564A9142B5
:100B20001CBF564A914214D0554A91421CBF554AA7
:100B300091420ED0544A91421CBF544A914208D06F
:100B4000534A91421CBF534A914202D0524A9142A9
:100B50003CD1042280F83520404881421CBF4048E7
:100B6000814228D03F4881421CBF3F48814222D069
:100B70003E4881421CBF3E4881421CD03D488142D4
:100B80001CBF3D48814216D03C4881421CBF3C48B6
:100B9000814210D03B4881421CBF3B4881420AD071
:100BA0003A4881421CBF3A48814204D039488142C8
:100BB0001CBF39488142086820F00100086000210C
:100BC00002E0802141650121084670470A6822F051
:100BD0000E020A600A6822F001020A602F4A91425E
:100BE00014D02F4A91421CBF2E4A91420ED02E4A59
:100BF00091421CBF2D4A914208D02D4A91421CBF00
:100C00002C4A914202D02C4A914218D1016E012304
:100C10000A6822F480720A60D0E9161202F01F02FC
:100C200003FA02F24A60D0E919124A60C16E31B18A
:100C30000A6822F480720A60D0E91C124A6001211D
:100C400080F83510002180F83410026D002ABBD0E6
:100C500080B590470021BDE88040B5E71000024014
:100C6000280002404000024058000240700002404C
:100C700088000240A0000240B80002401004024078
:100C8000280402404004024058040240700402401C
:100C900088040240B8040240A004024008540258EC
:100CA0001C540258305402584454025858540258A4
:100CB0006C540258945402588054025870B505463A
:100CC0006E1C00F0DDF804461EB19748007805441C
:100CD00001E04FF0FF3500F0D3F8001BA842FAD333
:100CE00070BD00BF2DE9FC4F5D4A0A274FF0000B95
:100CF0004FF0010E4FF0030A4FF00F094FF0000CB8
:100D0000904208BF0927574A02444FEAB223082BF2
:100D100038BF4FEAB227009700270A6832FA07F374
:100D200008BFBDE8FC8F0EFA07F312EA030400F0D7
:100D300090804D6805F00302A2F10108B8F1010F9F
:100D400018D8D0F80890CE680AFA0CF829EA0808F2
:100D500006FA0CF64FF00F0946EA08068660C5F35E
:100D6000001606FA07F8466826EA030343EA080372
:100D7000436001E0032A1DD0C6680AFA0CF3022A78
:100D800026EA03038E6806FA0CF643EA0603C360FC
:100D900010D1354D0BF01C0209FA02F305EA570594
:100DA00005442E6A26EA03030E6906FA02F21A4384
:100DB0002A624D68066805F003020AFA0CF315F47E
:100DC000403F02FA0CF226EA030342EA0302026001
:100DD0003FD0804A0BF00C0609FA06F5136843F081
:100DE00002031360126802F002020192019A1F4B83
:100DF00027F0030252F8038028EA0508009D05FA4F
:100E000006F648EA0605D5504FF0B0452A684B680B
:100E1000A24313F4801F18BF224313F4001F2A605B
:100E2000134A156825EA040518BF254313F4003F4B
:100E30001560D2F8805025EA040518BF254313F445
:100E4000803FC2F88050D56F25EA040518BF2543BE
:100E5000D5670BF1040B0CF1020C01375DE700BF05
:100E6000002402580000FEA7FCFFFF7F0804005882
:100E700004000058002A08BF09048161704700007F
:100E800029488068704700BF27480178826811446C
:100E90008160704780B5032000F0D8F801F020F899
:100EA0000F498D4B0A68C2F3032209689A5C01F06E
:100EB0000F01595C02F01F02D0400A4A01F01F01E5
:100EC00020FA01F11160194908600F2000F00CF8B8
:100ED00008B1012080BD00F06FF8002080BD00BF88
:100EE000184402581000002070B50F4E04463078A8
:100EF000B0B14FF47A71B1FBF0F00C490968B1FB65
:100F0000F0F001F003FB01250F2C0AD848B94FF08F
:100F1000FF3021460022002500F06CF8746000E0EC
:100F20000125284670BD00BF000000200C000020F5
:100F300010B5427812490A608A6822F001028A607C
:100F400042684A60C37A027B847A90F800C090F8C5
:100F500008E01B0643EA0272437A42EAC442447B39
:100F600042EA8442847BC07B42EA444242EA004037
:100F700040EA032040EA4E0040EA0C00886010BDC1
:100F800098ED00E0BFF35F8F0A48016821F48031DB
:100F90000160002101677047064940F001000867C1
:100FA000086840F480300860BFF34F8FBFF36F8F45
:100FB000704700BF24ED00E081B00648016841F0B1
:100FC00002010160006800F002000090009801B08A
:100FD000704700BFF4440258002808DB00F01F01EE
:100FE0000122400902FA01F1014A42F8201070473B
:100FF00000E100E0B0B5144C1A4D00F00F03B0F161
:10100000FF3FA3F104032B4403F10C03C8BF0319F2
:101010002868C0F30220051DC41E80F00700072DBC
:101020004FF0010538BF0024042828BF042005FA2A
:1010300000F00138084005FA04F10F31A0401140DA
:10104000084300011870B0BD00E400E005494FF608
:10105000FF030A681A4060F30A220348104308603D
:10106000704700BF0CED00E00000FA05B0B5114D6F
:101070002A68296812F0040F05D101F00701081A47
:1010800018BF0120B0BD21F0070108432860FFF719
:10109000F7FE044655F8080C10F4005F1CBF002052
:1010A000B0BDFFF7EDFE001BB0F57A7F84BF0120D5
:1010B000B0BDEFE70C48025880B500F0D1FE0549FD
:1010C000054A0968C1F30211515C01F01F01C840D3
:1010D00080BD00BF204402580E43000810B54E4C9E
:1010E000D4F828C0A26AE36AE16BC3F30013C2F329
:1010F00005325B42002A03EAD1016FF35F3100EE53
:10110000101AB8EE400A20D00CF00303022B24D0B2
:10111000012B1ED0EBB902EE102A9FED411AB8EE5A
:10112000422A216820EE010A11F0200F5DD1A16B47
:101130009FED3E1A6FF35F2181EE022A03EE101A33
:10114000B8EE433A30EE031A1AE00021C0E900116C
:1011500049E0A16B9FED332A02E0A16B9FED2F2A9E
:1011600001EE102A6FF35F219FED2D3AB8EE414A50
:1011700001EE101AB8EE411A82EE042A00EE031AAC
:10118000A16BB7EE000A31EE001A22EE011AC1F38C
:10119000462103EE101AB8EE433A33EE002A81EEF0
:1011A000022ABCEEC22A80ED002AA16BC1F30641DF
:1011B00002EE101AB8EE422A32EE002A81EE022A1E
:1011C000BCEEC22A80ED012AA16BC1F3066102EEDA
:1011D000101AB8EE422A32EE000A81EE000ABCEE86
:1011E000C00A10EE101A816010BD2168C1F3C10160
:1011F0000D4A22FA01F1A26B03EE101A6FF35F227F
:1012000001EE102AB8EE411AB8EE433A30EE011A58
:1012100083EE022AB4E700BF0044025820BCBE4B54
:10122000000000390024744A0090D0030024744C5C
:1012300010B54E4CD4F828C0A26AE36A616CC3F3BF
:101240000023C2F305525B42002A03EAD1016FF387
:101250005F3100EE101AB8EE400A20D00CF0030304
:10126000022B24D0012B1ED0EBB902EE102A9FEDE9
:10127000411AB8EE422A216820EE010A11F0200F2F
:101280005DD1216C9FED3E1A6FF35F2181EE022A42
:1012900003EE101AB8EE433A30EE031A1AE00021BA
:1012A000C0E9001149E0216C9FED332A02E0216C76
:1012B0009FED2F2A01EE102A6FF35F219FED2D3A4B
:1012C000B8EE414A01EE101AB8EE411A82EE042A35
:1012D00000EE031A216CB7EE000A31EE001A22EE7E
:1012E000011AC1F3462103EE101AB8EE433A33EE69
:1012F000002A81EE022ABCEEC22A80ED002A216C6F
:10130000C1F3064102EE101AB8EE422A32EE002A6C
:1013100081EE022ABCEEC22A80ED012A216CC1F3C3
:10132000066102EE101AB8EE422A32EE000A81EE91
:10133000000ABCEEC00A10EE101A816010BD2168D0
:10134000C1F3C1010D4A22FA01F1226C03EE101A19
:101350006FF35F2201EE102AB8EE411AB8EE433A5D
:1013600030EE011A83EE022AB4E700BF00440258AF
:1013700020BCBE4B000000390024744A0090D0030A
:101380000024744C2DE9F0470446E078A54F00078F
:1013900022D5606E4FEA3051032908D8DFE801F00A
:1013A00002090F17F96941F40031F9610FE00126D4
:1013B00013E004F10800022101F0F2FC04E004F162
:1013C0002800022101F072FD064636B9606E396CC4
:1013D00021F440110843386400266078BA46C007FB
:1013E00001D1354628E0A06D04280BD83546DFE84A
:1013F00000F0030C12181800F869354640F400306C
:10140000F8610EE00125012717E004F10800002132
:1014100001F0C6FC04E004F12800002101F046FDC3
:101420000546002D2F4608D152460025106CA16DAF
:1014300020F00700084310643746607840072BD53A
:10144000D4F8A4004FEA705005280AD8DFE800F06D
:10145000030C121818185146C86940F40030C861CE
:101460000EE00125012618E004F10800002101F03A
:1014700097FC04E004F12800002101F017FD054667
:10148000002D2E4609D152460025906CD4F8A410A8
:1014900020F46000084390643E46607800072BD536
:1014A000D4F8A8004FEA306005280AD8DFE800F039
:1014B000030C121818185146C86940F40030C8616E
:1014C0000EE00125012718E004F10800002101F0D9
:1014D00067FC04E004F12800002101F0E7FC054668
:1014E000002D2F4609D152460025906CD4F8A81043
:1014F00020F0E060084390643746E078800722D50A
:10150000E06C4FEA3010032809D8DFE800F0110240
:101510000B115146C86940F40030C86108E001254C
:10152000012611E004F10800022101F039FC054612
:10153000002D2E4608D152460025D06BE16C20F0DC
:1015400030000843D0633E466078C00629D5E06D80
:101550004FEA303004280AD8DFE800F0030C1218F4
:1015600018005146C86940F40030C8610EE00125FA
:10157000012717E004F10800002101F011FC04E04C
:1015800004F12800002101F091FC0546002D2F46B2
:1015900008D152460025106CE16D20F4E04008436C
:1015A000106437466078800623D5206E4FEA3040BD
:1015B00005280AD8DFE800F012030C12121204F119
:1015C0000800012101F0ECFB07E00125012611E0F4
:1015D00004F12800012101F069FC0546002D2E468A
:1015E00008D152460025106C216E20F4E0200843FB
:1015F00010643E466078400628D5D4F8AC004FEA27
:10160000307005280AD8DFE800F015030F1515150E
:1016100004F10800012101F0C3FB0AE001250127C4
:1016200015E000BF1044025804F12800012101F028
:101630003DFC0546002D2F4609D152460025906CF1
:10164000D4F8AC1020F0E04008439064374660784E
:1016500000061ED5E06E88B1B0F1005F08D0B0F191
:10166000805F2AD15146C86940F40030C86105E066
:1016700004F10800012101F093FB0546002D2E46E0
:1016800008D152460025106CE16E20F0405008430E
:1016900010643E46E078C00702D1B046574624E0C9
:1016A000A06C574603280BD8DFE800F014020E1494
:1016B000F86940F40030F8610CE001250126E9E703
:1016C00001254FF0010810E004F10800022101F0AB
:1016D00067FB0546002DA84607D1F86BA16C0025D5
:1016E000B04620F003000843F863A078400601D418
:1016F000474618E0D7F8F00340F48070C7F8F003CD
:10170000FFF7BEFB0646D7F8F00310F4807F07D141
:10171000FFF7B6FB801B6428F5D90325032702E0F9
:10172000002D2F4612D02078C0074ED0A06F4FEA70
:10173000F000052835D8DFE800F03D03373D3D3D9A
:1017400004F10800012101F02BFB32E05346196E31
:10175000D4F8B000414011F4407F0BD0196E1A6EDE
:1017600042F4803221F440711A661A6E22F48032FB
:101770001A661966B0F5807F40F04E82FFF780FB55
:10178000064641F28839032503275346186E10F0A8
:10179000020F40F03F82FFF773FB801B4845F4D9EE
:1017A000C1E70125012611E004F12800012101F023
:1017B0007DFB0546002D2E4608D152460025506C73
:1017C000A16F20F03800084350643E46207880071F
:1017D00021D5606F05280AD8DFE800F012030C124B
:1017E000121204F10800012101F0DAFA07E00125E4
:1017F000012711E004F12800012101F057FB054603
:10180000002D2F4608D152460025506C616F20F004
:1018100007000843506437462078400723D5D4F8A2
:10182000900005280AD8DFE800F012030C1212120B
:1018300004F10800012101F0B3FA07E001250126B7
:1018400012E004F12800012101F030FB0546002DD3
:101850002E4609D152460025906CD4F8901020F005
:101860000700084390643E462078800625D5D4F8CA
:101870008C004FEA307005280AD8DFE800F0120328
:101880000C12121204F10800002101F089FA07E09D
:101890000125012712E004F12800022101F006FBD6
:1018A0000546002D2F4609D152460025506CD4F82C
:1018B0008C1020F0E0400843506437462078400602
:1018C00025D5D4F898004FEAB02005280AD8DFE8DB
:1018D00000F012030C12121204F10800002101F0B2
:1018E0005FFA07E00125012612E004F12800022139
:1018F00001F0DCFA0546002D2E4609D1524600259E
:10190000906CD4F8981020F4E050084390643E4660
:101910002078000625D5D4F89C004FEA70300528C1
:101920000AD8DFE800F012030C12121204F10800CA
:10193000002101F035FA07E00125012712E004F14A
:101940002800022101F0B2FA0546002D2F4609D1E8
:1019500052460025906CD4F89C1020F46040084357
:1019600090643746206810F0080F15D0D4F8801026
:10197000B1F5805F0AD104F12800022101F096FA46
:10198000002818BF01272068D4F8801053465A6CED
:1019900022F4405211435964C10615D5D4F894106D
:1019A000B1F5807F0AD104F12800022101F07EFA0E
:1019B000002818BF01272068D4F8941053469A6C69
:1019C00022F4407211439964000320D5D4F8A0009A
:1019D000B0F5003F0FD0B0F5803F06D068BB04F1F2
:1019E0000800002101F0DCF904E004F128000221E4
:1019F00001F05CFA0546002D2E4609D1524600251D
:101A0000906CD4F8A01020F44030084390643E4617
:101A1000A078400726D5D4F88400B0F5401F15D033
:101A2000B0F5001F0CD0B0F5801F40F0EE8051469D
:101A3000C86940F40030C86108E001250126E7E7E5
:101A400004F12800012101F031FA0546002D2F464E
:101A500009D152460025506CD4F8841020F440106F
:101A6000084350643746A078C00701D13E461EE0C7
:101A7000206DB0F5803F06D0B8B95146C86940F432
:101A80000030C86105E004F10800022101F088F986
:101A90000546002D2E460AD152460025D06B216DF9
:101AA00020F480300843D063E0E701250126216857
:101AB00011F0005F01D1606809E004F12800022103
:101AC00001F0F4F9002818BF0126D4E900108A03B8
:101AD0001AD5E26F6FF0010303EB3223022B0BD315
:101AE0004FEA322343B1012B40F09280DAF81C30E8
:101AF00043F40033CAF81C303DB9DAF8443023F41B
:101B000040731A43CAF844203546CA0207D5DAF8AA
:101B10004020236F22F000421A43CAF840208A0274
:101B200007D5DAF84020A36E22F080721A43CAF873
:101B300040204A000CD5DAF8002022F40042CAF80E
:101B40000020D4F8B420DAF800301A43CAF8002094
:101B5000B1F1FF3F07DCDAF83C20636D22F0405220
:101B60001A43CAF83C20090208D5DAF84410D4F820
:101B7000882021F440011143CAF84410C10708D05D
:101B800004F10800002101F00BF9002818BF0546F8
:101B90006068810708D504F10800012101F000F90F
:101BA000002818BF05466068410708D504F1080001
:101BB000022101F0F5F8002818BF0546606801070A
:101BC00008D504F12800002101F070F9002818BFA1
:101BD00005466068C10608D504F12800012101F01E
:101BE00065F9002818BF05466068800607D504F12E
:101BF0002800022101F05AF9002818BF0546002DDF
:101C000018BF01252846BDE8F087012501272AE7EE
:101C100001257AE7D4F8B000196800F44072002575
:101C2000B2F5407F21F47C5102BF054A02EA10124E
:101C300011436FF31F301960196E0843186657E59A
:101C4000CFFFFF002DE9F84304468846002C00F042
:101C5000FE80814B186800F00F0040450BD21868D9
:101C600020F00F0040EA08001860186800F00F002C
:101C7000404540F0EC802068E44F10F0040F0AD09B
:101C80002169BA6902F07002914281BFBA6922F0FB
:101C900070021143B96101070AD56169FA6902F05E
:101CA0007002914281BFFA6922F070021143F9611A
:101CB000C1060AD5A169FA6902F4E062914281BFC6
:101CC000FA6922F4E0621143F96181060AD5E169FB
:101CD0003A6A02F07002914281BF3A6A22F07002C1
:101CE0001143396281070AD5E168BA6902F00F022F
:101CF000914281BFBA6922F00F021143B961C10755
:101D000038D0B869A16820F470600843B861606891
:101D1000032806D0022809D1396811F4003F0ED1FA
:101D200095E0396811F0007F09D190E03968012809
:101D300002D1C90503D48AE0490740F18880396996
:101D4000994621F0070108433861FFF799F80646E4
:101D500041F288353869616800F03800B0EBC10F96
:101D600006D0FFF78DF8801BA842F3D903206FE05F
:101D700020684B4681070AD5E168BA6902F00F0274
:101D800091423FBFBA6922F00F021143B96119684D
:101D900001F00F0141450AD9196821F00F0141EA0C
:101DA00008011960196801F00F0141454FD1410741
:101DB0000AD52169BA6902F0700291423FBFBA693F
:101DC00022F070021143B96101070AD56169FA690D
:101DD00002F0700291423FBFFA6922F07002114393
:101DE000F961C1060AD5A169FA6902F4E06291427B
:101DF0003FBFFA6922F4E0621143F96180060AD517
:101E0000E069396A01F0700188423FBF396A21F008
:101E100070010843386200F063F8B9692F4AC1F3D2
:101E20000321515C01F01F01C840B96901F00F01A5
:101E3000515C194A01F01F0120FA01F111601749A4
:101E4000086006480068BDE8F443FFF74DB801207C
:101E5000C0B201B0BDE8F0830020005204000020B1
:101E600080B500F03DF80B491C4B0A68C2F3032211
:101E70009A5C02F01F0220FA02F20868064900F09C
:101E80000F00185C00F01F0022FA00F00860034900
:101E90000A6080BD18440258100000200C00002089
:101EA00080B5FFF7DDFF0C490C4A0968C1F3021148
:101EB000515C01F01F01C84080BD00BF80B5FFF735
:101EC000CFFF0549054A0968C1F30221515C01F0C1
:101ED0001F01C84080BD00BF1C4402580E430008CB
:101EE0004A490869C0F3C20349484A4A032B10D043
:101EF000022B04BF4848704753B9086810F0200F00
:101F000010461FBF0868C0F3C10022FA00F07047F6
:101F1000704780B5D1F828C0D1F828E0CB6A486B6B
:101F200003F001035B4203EAD003CEF305106FF325
:101F30005F33002800EE103AB8EE400ABDE880405A
:101F400004BF002070470CF00303022B20D0012BAC
:101F50001AD0CBB902EE100A9FED311AB8EE422A20
:101F6000086820EE010A10F0200F39D1086B9FEDB0
:101F70002E1A6FF35F2081EE022A03EE100AB8EEEC
:101F8000433A30EE031A16E00A6B9FED262A02E070
:101F90000A6B9FED222A01EE100A6FF35F229FED7C
:101FA000203AB8EE414A01EE102AB8EE411A82EE0C
:101FB000042A00EE031A086BB7EE000A31EE000A9D
:101FC00022EE000AC0F34620013001EE100AB8EEFE
:101FD000411A80EE010ABCEEC00A10EE100A7047EA
:101FE0000868C0F3C10022FA00F00A6B03EE100A81
:101FF0006FF35F2201EE102AB8EE411AB8EE433AB1
:1020000030EE011A83EE022AD5E700BF00440258E1
:1020100000093D000090D00340787D0120BCBE4BFC
:10202000000000390024744A0024744CF8B50446BA
:10203000002C00F07A812078CF4EC0074CD0316957
:10204000B06A01F03801102915D0182904BF00F03A
:10205000030002280FD06068A0B1B0F5803F06D021
:102060003168B0F5A02F23D141F480203060306872
:1020700040F4803022E0306810F4003F2CD06068DB
:1020800050BB52E1306820F480303060306820F47A
:1020900080203060FEF7F4FE0546306810F4003F03
:1020A0001AD0FEF7EDFE411B03206429F5D929E281
:1020B00021F480303060306820F480203060FEF7FA
:1020C000DFFE0546306810F4003F05D1FEF7D8FE6C
:1020D000401B6428F6D93DE12078800751D531694D
:1020E000B06A11F0380118D0182908BF5FEA807073
:1020F00013D0E068316898B321F0190108433060CB
:10210000FEF7BEFE0546306810F0040F20D1FEF742
:10211000B7FE401B0228F6D91CE13168E06811F0D7
:10212000040F02D0002800F00081316821F019016D
:1021300008433060FEF7A4FE0546306810F0040F37
:1021400006D1FEF79DFE411B03200229F5D9D9E1F6
:102150007068216920F0FE4040EA0160706010E084
:1021600021F001003060FEF78BFE0546306810F06C
:10217000040F06D0FEF784FE411B03200229F5D987
:10218000C0E12078C00630D53169B06A01F038016D
:1021900008291BD0182904BF00F00300012815D01E
:1021A000E1693068002900F0098140F0800030606A
:1021B000FEF766FE0546306810F4807F0ED1FEF70C
:1021C0005FFE411B03200229F5D99BE1306810F422
:1021D000807F1CBFE069802840F0A780F068216AFA
:1021E00020F07C5040EA0160F0602078000723D5A1
:1021F0006169706F79B140F001007067FEF740FED1
:102200000546706F10F0020F16D1FEF739FE401B25
:102210000228F6D99EE020F001007067FEF730FE3C
:102220000546706F10F0020F06D0FEF729FE411B25
:1022300003200229F5D965E12078800623D5A1691C
:10224000306879B140F480503060FEF719FE0546E1
:10225000306810F4005F16D1FEF712FE401B022812
:10226000F6D977E020F480503060FEF709FE05468D
:10227000306810F4005F06D0FEF702FE411B032019
:102280000229F5D93EE12078400750D4676A002F33
:1022900000F01F81306900F0380018286ED1B16A53
:1022A000306B012F41D0A26A01F0030393423CD16D
:1022B000E26AC1F30511914237D1226B01466FF3F7
:1022C0005F21013A914230D1C0F34621626B013A5D
:1022D00091422AD1C0F30641A26B013A914224D126
:1022E000C0F30660E16B013988421ED1706BA16CAE
:1022F000C0F3CC00814200F0EC80F06A20F00100D5
:10230000F062FEF7BDFD0546FEF7BAFDA842FBD020
:10231000706B4FF6F8718843A16C40EAC10070639E
:10232000F06A40F00100F062D3E00120EAE0D6F864
:10233000000440F48070C6F80004FEF7A1FD0546D5
:10234000D6F8000410F4807F06D1FEF799FD401BFB
:102350006428F5D90320D5E0A068002840D00128E2
:1023600006D0316F052840F0B68041F00400306798
:10237000306F40F00100B4E000440258306820F0B3
:1023800080703060FEF77CFD0546022F0AD1306870
:1023900010F0007F3DD0FEF773FD411B03200229A2
:1023A000F5D9AFE0306810F0007F00F09280FEF7C2
:1023B00067FD411B03200229F4D9A3E020F080002F
:1023C0003060FEF75DFD0546306810F4807F3FF415
:1023D0000CAFFEF755FD411B03200229F4D991E013
:1023E000306F20F001003067306F20F0040030675C
:1023F000FEF746FD054641F28837306F10F0020FB8
:102400003FF444AFFEF73CFD411B0320B942F4D931
:1024100078E0B06A40F2F33104F130034FF47E47C4
:102420008843D4E90A12084340EA0210B0620FCB95
:1024300007EB412100F2FF1089B26FF35F200843E0
:102440004FF4FE0101EB024101F4FE0108434FF09D
:10245000FE4101EB036101F0FE4108434FF6F871C4
:102460003063F06A20F00100F062706B8843A16C69
:1024700040EAC1007063F06A216C20F00C00084350
:10248000F062F06A616C20F002000843F062F06ACA
:1024900040F48030F062F06A40F40030F062F06A9C
:1024A00040F48020F062F06A40F00100F062306891
:1024B00040F080703060FEF7E3FC0446306810F0B6
:1024C000007F06D1FEF7DCFC011B03200229F5D9B1
:1024D00018E0002016E021F001003067306F20F096
:1024E00004003067FEF7CCFC054641F28837306FB8
:1024F00010F0020F7FF4CAAEFEF7C2FC411B0320AE
:10250000B942F4D9C0B201B0F0BD0000411E0020B4
:10251000B0EB116F1CBF01207047044AF0235160DB
:1025200003490B70072190601160704710E000E0D4
:1025300023ED00E090F88410012901D1022112E07E
:102540002421C0F8881002681368116821F0010185
:1025500023F0005311600021416613602022C0F86F
:10256000882080F88410C8B2704770477047B0B5B3
:10257000044694F88400012801D102201BE00120C8
:1025800084F884002420C4F8880020680568026864
:1025900022F001020260826822F0606211438160D1
:1025A000204600F0ADFD206805602020C4F88800BA
:1025B000002084F88400C0B2B0BDB0B5044694F8E1
:1025C0008400012801D102201BE0012084F884004E
:1025D0002420C4F8880020680568026822F00102FF
:1025E0000260826822F0604211438160204600F060
:1025F00087FD206805602020C4F88800002084F84A
:102600008400C0B2B0BD704770477047B0B5044693
:1026100040F62F012068C26902EA01030168D0F880
:1026200008E0202B0DD101F020030EF080552B4344
:1026300007D0616F002900F0AA812046BDE8B040B4
:10264000084740F60F0313401FBFD14B0B40D14D3D
:102650000EEA050C18BF53EA0C0344D0D3070BD085
:1026600011F480731FBF01230362D4F8903043F04C
:10267000010318BFC4F890300EF00105930708D588
:102680003DB102230362D4F8903043F00403C4F850
:102690009030530708D53DB104230362D4F890303D
:1026A00043F00203C4F8903013070DD501F0200366
:1026B00053EA0C031FBF08230362D4F8903043F0A1
:1026C000080318BFC4F8903013054ED511F080638D
:1026D0004BD04FF400632546036255F8903F43F01A
:1026E00020032B6043E002EA0105EB06E36E7CD594
:1026F000012B7AD110210162816811F0400F40F066
:102700008680B4F85C10B4F85E20B4F85E30002B1C
:1027100000F03D81891A89B209B938E1206850E892
:10272000000F226820F4907042E80003002BF5D1DE
:10273000206850E8020FA94A1040226842E80203CC
:10274000002BF5D12020C4F88C000020E0666067E3
:10275000206850E8000F226820F0100042E80003D3
:10276000002BF5D102202067E2E004F190052B68F0
:10277000002B00F00C8112F020020BD001F02001A0
:102780000EF0805211431CBF616F002902D0204619
:10279000884720682968806801F0280100F040001F
:1027A000084374D0204600F0A9FD2068816811F02C
:1027B000400F01D126E0206850E8020F216820F088
:1027C000400041E80202002AF5D1D4F88000C8B1E7
:1027D00071490165FEF786F9002800F0D880D4F829
:1027E0008000016DBDE8B0400847D30244D51EF417
:1027F000800341D04FF4801101622046BDE8B04013
:10280000FFF702BF2046BDE8B040FFF7FEBED4F898
:1028100080100A68614B9A4240D0614B9A421CBFBB
:10282000604B9A423AD0604B9A421CBF5F4B9A422F
:1028300034D05F4B9A421CBF5E4B9A422ED05E4B07
:102840009A421CBF5D4B9A4228D05D4B9A421CBFF6
:102850005C4B9A4222D05C4B9A421CBF5B4B9A4223
:102860001CD05B4B9A421CBF5A4B9A4216D05A4B13
:102870009A4208BF0A6812E013065ED501F0800C88
:102880000EF4000353EA0C0357D0A16FD2E62046A2
:10289000FFF7BBFE0020C4F8900078E00A6804321D
:1028A00013689DB2002D72D0B4F85C2095426ED2B0
:1028B000A4F85E30C969B1F5807F01D132E02068AB
:1028C00050E8000F216820F4807041E80002002ADF
:1028D000F5D1206850E8020F216820F0010041E89E
:1028E0000202002AF5D1206850E8020F216820F08A
:1028F000400041E80202002AF5D12020C4F88C00F3
:102900000020E066206850E8000F216820F01000E9
:1029100041E80002002AF5D1D4F88000FDF76CFFF1
:10292000B4F85C2002202067B4F85E00101A81B26F
:102930002046BDE8B040FFF718BE6B060AD410026F
:102940001BD511F0804018D02046BDE8B040FFF7FD
:102950005ABE206850E8000F216820F0400041E88E
:102960000002002AF5D12020C4F888000020A067CA
:102970002046BDE8B04000F067B9D00107D5B1F1FD
:10298000FF3F04DC2046BDE8B040FFF7EFBDB0BD1F
:102990002001000401000010ED3200081000024088
:1029A00028000240400002405800024070000240EF
:1029B00088000240A0000240B8000240100402401B
:1029C00028040240400402405804024070040240BF
:1029D00088040240B8040240A0040240FEFFFFEF5A
:1029E00010B50446D4B1D4F8880028B9002084F882
:1029F0008400204600F026F82420C4F888002068CF
:102A0000016821F001010160A06A10B1204600F0C8
:102A1000A5FB204600F028FF012801D1012010BDB0
:102A20002068416821F490414160816821F02A01C9
:102A30008160016841F0010101602046BDE810405D
:102A400000F0F6BBF0B5B5B0044630A81421FDF790
:102A5000DBFD02A8B821FDF7D7FD2068324C9A4D66
:102A6000CC4988422DD0B24988425AD10026012053
:102A70000396029002A82096FEF784FC08B1FDF7A9
:102A8000B6FE286930A940F010002861286900F0DE
:102A9000100001900198286840F001002860286823
:102AA00000F00100019001984FF4C06030900220C6
:102AB000CDE931063390072034902046FEF712F915
:102AC0002FE0002602A80227039602971F96FEF722
:102AD00059FC08B1FDF78BFEA86830A940F400301E
:102AE000A860A86800F4003001900198286840F0C0
:102AF00001002860286800F00100019001980C2076
:102B0000CDE930070720CDE9326734902046FEF743
:102B1000E9F8262000210022FEF76CFA2620FEF7B5
:102B20005BFA35B0F0BD00BF00000258D0F88C3021
:102B3000202B1FD10123F1B1EAB110B50023C366E8
:102B400003680E4CA3421CBF5C6814F4000F0BD04A
:102B500000E0036853E8003FD0F800C043F0806312
:102B60004CE80034002CF4D101F08EF80023BDE8CD
:102B7000104000E00223D8B2704700BF000C00589C
:102B8000834900680968884218BF704710B5064C31
:102B9000207801F09BFB7E4821460122FFF7C6FF0B
:102BA000BDE81040704700BF18000020D0F8883002
:102BB000202B1BD10123E9B3E2B301650021A0F86A
:102BC0005420A0F856208167C0F890102121C0F849
:102BD0008810426E8168B2F1005F09D1B1F5805F63
:102BE00004BF016900290BD016490AE0022321E045
:102BF000B1F5805F04BF016900290ED00F490DE0D7
:102C00000F498167016851E8021F026841F4000121
:102C100042E80213002BF5D10BE0074981670168F8
:102C200051E8001F026841F0800142E80013002BC8
:102C3000F5D10023D8B27047B53D0008793E0008B1
:102C40000B3E0008CB3E00087047FEE72DE9F0413F
:102C500086B0002600224FF00208CDE904661A482B
:102C6000016841F080010160016801F0800100917C
:102C70000099016841F001010160016801F0010162
:102C800000910099016841F0020101600221006891
:102C900000F00200009000980C4C2046FEF7EAF885
:102CA00001AD012720462946CDE901760397FEF7BD
:102CB00019F820462946CDE90187CDE90368FEF7DA
:102CC00011F806B0BDE8F081E04402580004025853
:102CD00010B5164C16484FF4E13100220C2384E85D
:102CE000070004F118001421C4E903226361FDF711
:102CF0008BFC2046FFF774FE08B1FDF778FD0B480A
:102D00000021FFF75AFC08B1FDF771FD07480021CB
:102D1000FFF72DFC08B1FDF76AFD0448FFF70AFC38
:102D200018B1BDE81040FDF762BD10BD6000002481
:102D30000010014010B5164C16484FF4E131002246
:102D40000C2384E8070004F118001421C4E90322CD
:102D50006361FDF759FC2046FFF742FE08B1FDF71D
:102D600046FD0B480021FFF728FC08B1FDF73FFDA9
:102D700007480021FFF7FBFB08B1FDF738FD0448C9
:102D8000FFF7D8FB18B1BDE81040FDF730BD10BD0E
:102D90001C00002000440040FEE7FEE770470000F2
:102DA000F8B5D24F05460C46B86A00F00300032878
:102DB00001D1012076E0386820F080603860FEF7AD
:102DC0005FF80646386810F0006F05D0FEF758F837
:102DD000801B0228F6D962E0B86A29682B1D4FF4DF
:102DE0007E46002C20F47C3040EA0130B8620FCBE4
:102DF00006EB412100F2FF1089B26FF35F2040EA39
:102E000001004FF4FE0101EB024101F4FE0140EA32
:102E100001004FF0FE4101EB036101F0FE4140EA89
:102E20000100B863F86A696920F0C00040EA010057
:102E3000F862F86AA96920F0200040EA01004FF624
:102E4000F871F862F86A20F01000F862F86B20EA76
:102E50000100E96940EAC100F863F86A40F0100037
:102E6000F86208D04FF40010012C08BF4FF4801016
:102E7000F96A084302E0F86A40F40020F862386812
:102E800040F080603860FDF7FBFF0446386810F0C2
:102E9000006F06D1FDF7F4FF001B0328F6D30320D3
:102EA00000E00020C0B201B0F0BD00BFF8B58F4F08
:102EB00005460C46B86A00F00300032801D1012042
:102EC00076E0386820F080503860FDF7D9FF06467C
:102ED000386810F0005F05D0FDF7D2FF801B022894
:102EE000F6D962E0B86A29682B1D4FF47E46002CA3
:102EF00020F07C7040EA0150B8620FCB06EB412114
:102F000000F2FF1089B26FF35F2040EA01004FF436
:102F1000FE0101EB024101F4FE0140EA01004FF025
:102F2000FE4101EB036101F0FE4140EA010038641B
:102F3000F86A696920F4406040EA0100F862F86AC2
:102F4000A96920F4007040EA01004FF6F871F862B8
:102F5000F86A20F48070F862786C20EA0100E96970
:102F600040EAC1007864F86A40F48070F86208D0E2
:102F70004FF08070012C08BF4FF40000F96A08433D
:102F800002E0F86A40F48000F862386840F080504F
:102F90003860FDF775FF0446386810F0005F06D111
:102FA000FDF76EFF001B0328F6D3032000E000208E
:102FB000C0B201B0F0BD00BF7047FDF765BF0000B3
:102FC00010B59CB009A84C21FDF71EFB01A82021DB
:102FD000FDF71AFB0220FEF749F800200090214877
:102FE000016821F440410160016801F44041009111
:102FF0000099016811F4005FFBD001204FF480318B
:103000002C22002409900A910221CDE91211149179
:10301000CDE915200C20CDE91711199009A8CDE9AB
:103020001A44FFF703F818B1EFF3108072B6FEE709
:103030003F204FF4806101900320CDE90204082075
:1030400004904020CDE90500CDE9071001A8032137
:10305000FEF7F8FD18B1EFF3108072B6FEE71CB072
:1030600010BD00BF184802581E48016841F47001A5
:1030700001601D48016801F00F0106299FBF01682A
:10308000072262F30301016010B518490A6842F093
:1030900001020A6000220A610B68154C23400B6094
:1030A000036813F0080F1FBF0368072464F30303CA
:1030B00003608A61CA610A620E4B8B620E4BCB625F
:1030C0000E4B0B634A638B63CA630B644A640B68E1
:1030D00023F480230B600A664FF4005143F2D202BE
:1030E000425010BD88ED00E000200052004402581C
:1030F0007FEDF6EA000202020000FF0180020101FA
:10310000416ED9B180B502680FF2400C0FF2440E47
:103110009168C1F3426192681CF801301EF80110F9
:10312000520F0901B1FBF3F11CF802301EF8022026
:103130001201B2FBF3F2BDE8804001E0012201215F
:10314000A0F86A20A0F86810704700BF08040204C5
:10315000080101010101010307010000816A11F06A
:10316000080F08D002685368D0F838C023F4004331
:1031700043EA0C035360CA0708D002685368D0F8CA
:103180002CC023F4003343EA0C0353608A0708D5AC
:1031900002685368D0F830C023F4803343EA0C034C
:1031A00053604A0708D502685368D0F834C023F446
:1031B000802343EA0C035360CA0608D5026893686B
:1031C000D0F83CC023F4805343EA0C0393608A0692
:1031D00008D502689368D0F840C023F4005343EA4E
:1031E0000C03936080B54A0615D5D0F800E0DEF8F0
:1031F00004C0436C2CF48012B3F5801F42EA030232
:10320000CEF8042007D1DEF80420836C22F4C0023B
:103210001A43CEF804200906BDE8804058BF704725
:1032200001684A68C06C22F400221043486070476D
:10323000BCB504460020C4F89000FDF721FE054609
:103240002068016811F0080F18D027484FF40011CA
:1032500000222B460090204600F06CFE68B12068EA
:1032600050E8000F216820F0800041E80002002AA9
:10327000F5D12020C4F8880025E02068006810F00F
:10328000040F22D018484FF4800100222B460090F2
:10329000204600F04FFEC0B1206850E8000F2168C2
:1032A00020F4907041E80002002AF5D1206850E82F
:1032B000020F216820F0010041E80202002AF5D146
:1032C0002020C4F88C00032007E02020C4F88800E8
:1032D000C4F88C000020E06620670021C0B284F8AA
:1032E000841002B0B0BD00BFFFFFFF01806B002162
:1032F000A0F85E10A0F85610FFF787B9016851E8F2
:10330000001F026821F4907142E80013002BF5D1F0
:10331000016851E8021FAE4A1140026842E80213F8
:10332000002BF5D1C16E012909D1016851E8001FB8
:10333000026821F0100142E80013002BF5D1202192
:10334000C0F88C100021C16641677047B0F860205A
:10335000D0F88C300168222B59D14B6A1A40836D0A
:1033600023F8022B8365B0F85E20013AA0F85E20B6
:10337000B0F85E20002A18BF704700E0016851E8ED
:10338000001F026821F4907142E80013002BF5D170
:10339000016851E8021F026821F0010142E80213AE
:1033A000002BF5D12021C0F88C1000214167016766
:1033B0000168BB4A91421CBF4A6812F4000F0AD050
:1033C00000E0016851E8001F026821F0806142E8D6
:1033D0000013002BF5D1C16E012918BFFFF7D0BB38
:1033E0000021C166016851E8001F026821F0100148
:1033F00042E80013002BF5D10168CA6912F0100FE2
:103400001CBF10220A62B0F85C10FFF7AEB88869E2
:1034100040F00800886170472DE9F84F04462068A5
:10342000B4F86050D0F81CB001688268D4F88C30D1
:10343000222B40F0C580B4F8687002F0010601F458
:1034400080784FF020094FF0000A95E01BF0200033
:1034500000F095802068416AA26D294022F8021B85
:10346000A265B4F85E100139A4F85E10D0F81CB063
:103470001BF0070F30D0B8F1000F0BD01BF001018B
:103480001FBF01210162D4F8901041F0010118BF63
:10349000C4F890105EB11BF002011FBF022101624F
:1034A000D4F8901041F0040118BFC4F890105EB138
:1034B0001BF004011FBF04210162D4F8900040F00A
:1034C000020018BFC4F89000D4F8900020B1204644
:1034D000FFF79BF8C4F890A0B4F85E0000284BD129
:1034E000206850E8000F216820F4807041E8000255
:1034F000002AF5D1206850E8020FD9490840216818
:1035000041E80202002AF5D1C4F88C90C4F874A0F6
:10351000C4F870A02068D34988421CBF416811F4E8
:10352000000F0AD000E0206850E8000F216820F06A
:10353000806041E80002002AF5D1E06E012818D130
:10354000C4F86CA0206850E8000F216820F010003B
:1035500041E80002002AF5D12068C16911F0100F7E
:103560001CBF102101622046B4F85C10FEF7FDFF7D
:1035700002E02046FFF704FB002F7FF467AFB4F8AA
:103580005E00D8B1B4F86810884228BFBDE8F88F53
:10359000206850E8020F216820F0805041E80202C4
:1035A000002AF5D109486067206850E8000F2168BB
:1035B00040F0200041E80002002AF5D1BDE8F88F74
:1035C000816941F008018161BDE8F88F4D33000841
:1035D000FEFFFFEFB0F86020D0F88C300168222B9E
:1035E00059D1496A1140826D1170816D0131816537
:1035F000B0F85E100139A0F85E10B0F85E10002936
:1036000018BF7047016851E8001F026821F49071EB
:1036100042E80013002BF5D1016851E8021F02684F
:1036200021F0010142E80213002BF5D12021C0F85E
:103630008C1000214167016701688A4A91421CBFD2
:103640004A6812F4000F0AD000E0016851E8001F38
:10365000026821F0806142E80013002BF5D1C16EB1
:10366000012918BFFFF78CBA0021C166016851E833
:10367000001F026821F0100142E80013002BF5D171
:103680000168CA6912F0100F1CBF10220A62B0F85C
:103690005C10FEF76ABF886940F0080088617047D7
:1036A000000C00582DE9F84F04462068B4F860502B
:1036B000D0F81CB001688268D4F88C30222B40F01E
:1036C000C780B4F8687002F0010601F480784FF00A
:1036D00020094FF0000A97E01BF0200000F09780CF
:1036E0002068406AA16D28400870A06D0130A06577
:1036F000B4F85E000138A4F85E002068D0F81CB071
:103700001BF0070F30D0B8F1000F0BD01BF00101F8
:103710001FBF01210162D4F8901041F0010118BFD0
:10372000C4F890105EB11BF002011FBF02210162BC
:10373000D4F8901041F0040118BFC4F890105EB1A5
:103740001BF004011FBF04210162D4F8900040F077
:10375000020018BFC4F89000D4F8900020B12046B1
:10376000FEF753FFC4F890A0B4F85E0000284BD1D8
:10377000206850E8000F216820F4807041E80002C2
:10378000002AF5D1206850E8020F35490840216829
:1037900041E80202002AF5D1C4F88C90C4F874A064
:1037A000C4F870A02068D84988421CBF416811F451
:1037B000000F0AD000E0206850E8000F216820F0D8
:1037C000806041E80002002AF5D1E06E012818D19E
:1037D000C4F86CA0206850E8000F216820F01000A9
:1037E00041E80002002AF5D12068C16911F0100FEC
:1037F0001CBF102101622046B4F85C10FEF7B5FE34
:1038000002E02046FFF7BCF9002F7FF465AFB4F863
:103810005E00D8B1B4F86810884228BFBDE8F88FC0
:10382000206850E8020F216820F0805041E8020231
:10383000002AF5D109486067206850E8000F216828
:1038400040F0200041E80002002AF5D1BDE8F88FE1
:10385000816941F008018161BDE8F88FD535000824
:10386000FEFFFFEF000C00582DE9F04186B0044642
:103870002168A068D4E90423E56910430A68184365
:10388000954B28431A40104308604868E26820F4CA
:103890004050104348609148A0F50E368646A06916
:1038A0008F4FB1421CBF226A10438A688D4B1A4069
:1038B00010438860C86AD4F824C020F00F0040EAA2
:1038C0000C00C862884880468848894B994234D0A9
:1038D000884B99423DD0884B994246D0874B9942BC
:1038E00000F04F80864B994200F05780854B9942FB
:1038F00000F05F80844B994200F06680834B9942D0
:1039000000F06D80824B994200F07480814B9942A7
:1039100000F07B80804B994240F084803B68C3F389
:10392000C203052B00F27E800127DFE813F084003C
:1039300079007D007F00810083003A6802F0070370
:10394000052B00F26F800027DFE803F0756A6E70C8
:1039500072743A6802F00703052B00F263800027B7
:10396000DFE803F0695E626466683A6802F00703A4
:10397000052B00F257800027DFE803F05D52565810
:103980005A5C3A6802F00703052B00F24B800027CF
:10399000DFE803F051464A4C4E503A6802F0070304
:1039A000052B00F23F800027DFE803F0453A3E4058
:1039B00042443A6802F00703052B33D80027DFE8BA
:1039C00003F03A2F333537397A6802F00703052BB5
:1039D00028D80227DFE803F02F24282A2C2E3A6863
:1039E000C2F3C203052B1DD80127DFE803F0241919
:1039F0001D1F21233A68C2F3C203052B12D80127E9
:103A0000DFE803F0190E121416183A68C2F3C20365
:103A1000052B07D80127DFE803F00E0307090B0D7C
:103A2000042708E0802706E0082704E0102702E0CA
:103A3000202700E04027B14213D00121B5F5004F07
:103A400020D1082F2AD8DFE817F009007A000101F9
:103A500001017D000101010101018200FEF720FA50
:103A600079E0402F30D0042F31D0082F56D0102FBE
:103A70005ED0202F00F0C280022F40F0E680FDF7DC
:103A80001BFB4FE0082F14D8DFE807F00581E0E0CA
:103A900084E0E0E08900FEF703FA84E0102F00F0F4
:103AA0009980202F5BD0402F40F0D0804FF4004011
:103AB00055E0102F00F09580202F78D0402F40F057
:103AC000C5804FF4004072E04FF4004096E003A838
:103AD000FDF704FB049825E0F369FFCF004402588A
:103AE00054440258FFF4FF110090D00300093D0038
:103AF0000044004000480040004C0040005000409E
:103B000000780040007C0040000C00580014014088
:103B100000180140001C0140001001406846FDF7FC
:103B200087FB0198002800F08E80D4F824C065E05F
:103B3000DEF8000010F0200F5AD140465EE0FEF79C
:103B4000BDF908E003A8FDF7C9FA049803E0684648
:103B5000FDF76EFB0198002875D0D4F824C04849C1
:103B600031F81C10B0FBF1F061684A0802EB40002C
:103B70004FF6EF72B0FBF1F0A0F11001914264D862
:103B80004FF6F0710140C0F34200084359E0FEF7E0
:103B900095F908E003A8FDF7A1FA049803E0684648
:103BA000FDF746FB019800284DD0D4F824C03449D5
:103BB0004FF6EF7231F81C10B0FBF1F0616800EBCA
:103BC0005100B0FBF1F0A0F1100191423DD8216805
:103BD00080B237E0DEF8000010F0200F42D14046FE
:103BE000BDE7DEF8000010F0200F42D14046DEE7CE
:103BF000DEF80000C0F3C10028FA00F02049656833
:103C000031F81C2005EB45070121B0FBF2F3BB4264
:103C10001CD32F03BB4219D800210023FCF7CEFB95
:103C200009022A46002341EA1061000210EB550008
:103C300041F10001FCF7C2FB124AA0F5407191422C
:103C400003D82168C860002100E001210120A4F808
:103C50006A00A4F868000020C4E91D00084606B008
:103C6000BDE8F081DEF80000C0F3C10028FA00F0E2
:103C700075E7DEF80000C0F3C10028FA00F096E70F
:103C80001E430008FFFC0F0081650021A0F85C20A6
:103C9000A0F85E204167816871B1B1F1805F13D0F7
:103CA000B1F5805F18D10169FF23002908BF40F2F8
:103CB000FF13A0F8603012E001697F23002908BFDC
:103CC000FF23A0F860300AE001693F23002908BF04
:103CD0007F23A0F8603002E00021A0F860100021EE
:103CE000C0F890102221C0F88C10016851E8021F22
:103CF000D0F800C041F001014CE80213002BF4D1D0
:103D0000436E8168B3F1005F03D1B0F8683093422D
:103D100016D90269B1F5805F03D1CAB12349416761
:103D200003E02249002A416714D0016851E8001FCE
:103D3000026841F4907142E80013002BF5D12FE0A6
:103D40000269B1F5805F10D1F2B11649416710E008
:103D500017494167016851E8001F026841F02001DE
:103D600042E80013002BF5D11AE00E49002A416702
:103D70000CD0016851E8001F026841F4807142E8EC
:103D80000013002BF5D101E007494167016851E8B4
:103D9000021F026841F0805142E80213002BF5D166
:103DA00000207047A536000819340008D5350008F2
:103DB0004D330008D0F88810212918BF7047B0F89B
:103DC000561069B1026D016832F8023B6FF35F2350
:103DD0008B620265B0F856100139A0F85610704792
:103DE000016851E8001F026821F0800142E80013D9
:103DF000002BF5D1016851E8001F026841F0400135
:103E000042E80013002BF5D17047D0F88810212923
:103E100031D1B0F86AC012E00268D36913F0800FA4
:103E20000BD0036D33F8021B6FF35F2191620365C2
:103E3000B0F856100139A0F85610ACF1010C5FEA49
:103E40000C4208BF7047B0F85620002AE4D1016840
:103E500051E8021F026821F4000142E80213002B1E
:103E6000F5D1016851E8001F026841F0400142E8C5
:103E70000013002BF5D17047D0F88810212918BF06
:103E80007047B0F8561059B1026D016812F8013B45
:103E90008B620265B0F856100139A0F856107047D1
:103EA000016851E8001F026821F0800142E8001318
:103EB000002BF5D1016851E8001F026841F0400174
:103EC00042E80013002BF5D17047D0F88810212963
:103ED0002FD1B0F86AC010E00268D36913F0800FE8
:103EE00009D0036D13F8011B91620365B0F85610F9
:103EF0000139A0F85610ACF1010C5FEA0C4208BF82
:103F00007047B0F85620002AE6D1016851E8021F38
:103F1000026821F4000142E80213002BF5D1016888
:103F200051E8001F026841F0400142E80013002BF5
:103F3000F5D170472DE9F8430446DDF82090984606
:103F400016460F46206809F10105C1693940C91BB1
:103F5000B1FA81F14909B1422AD1002DF5D0FCF71F
:103F60008FFF0321B9F1000F23D0A0EB08004845D3
:103F70001FD82068016811F0040FE6D0402F18BF49
:103F8000802FE2D0C16911F0080F16D1C16911F478
:103F9000006FDAD04FF4006101622046FFF7AEF9FE
:103FA00020200321C4F89000002084F8840000E061
:103FB0000021C8B201B0BDE8F083082505622046A3
:103FC000FFF79CF90020C4F89050012184F8840088
:103FD000EFE70000BC48FEF719BB00BFFEE700009A
:103FE00080B5DFF81CE3BEF80420824212D94FF4FA
:103FF000FA7C002808BF80BDBEF80030013A0138C5
:104000000133B3FBFCF101FB1C31AEF80010AEF83C
:104010000420EEE70020CEF80000AEF8040080BDDA
:10402000B7488088704700BFB54800210160818093
:10403000704700BF2DE9F04F9FB000240694FCF7B5
:10404000A1FF01208DF8180048F21F708DF819406B
:10405000079406AC089040F2011009902046FCF746
:1040600067FF0420FCF798FFFCF714FFFEF7A8FF9A
:10407000FEF7ECFDFEF72CFEFEF75CFEFFF7D4FF2B
:10408000524853490122FEF751FD6425FCF7F8FE22
:10409000074658A0DFF848B10FF2A8190FF2A81A86
:1040A0006AA64168059181688089039055A00491B2
:1040B000416802918168808901910090FCF7E0FEDF
:1040C000C01B40F2DC51884260D3FCF7D9FE0746A2
:1040D000204640A12A46FCF7E9F92046D847204669
:1040E00040A12A46FCF7E2F92046D84704980890F8
:1040F000059807903F4806900398ADF824002046A5
:10410000D8473220FCF7DAFD019808900298079012
:104110003C4806900098ADF824002046D847013569
:1041200034E0012000F09EF8012810D1022000F0B8
:1041300099F88046032000F095F800285346204661
:104140003146424618BF4B46FCF7B0F918E0012053
:1041500000F088F8022806D1022000F083F8024619
:10416000204632A10AE0012000F07CF803280AD1A1
:10417000022000F077F80246204626A1FCF796F9C7
:10418000204600F07BF80720FFF72AFFFFF748FFE3
:10419000072893D3FFF744FF072813D3002000F02C
:1041A00061F855280ED1042000F05CF8FF2809D1F1
:1041B000052000F057F8FF2804D1062000F052F83F
:1041C000FF28AED00120FFF70BFF77E71C0000208F
:1041D000180000206E302E76616C3D2564000000D2
:1041E0007D42000874302E7478743D22256422FFCD
:1041F000FFFF0000636C69636B2062302C31FFFFAE
:10420000FF000000636C69636B2062302C30FFFF9D
:10421000FF0000006D73672E7478743D2268312EA4
:1042200076616C2069732025642200006D73672E0F
:104230007478743D2268302E76616C206973202575
:10424000642200006F6E00006F6666006D73672E5B
:104250007478743D226C6564202564206973202580
:104260007322000026490A8810444FF4FA72B0FB0A
:10427000F2F303FB120008448079704710B504463E
:1042800004E0207820B100F00FF80134002CF8D1C0
:10429000044CFF20A047FF20A047FF202146BDE897
:1042A00010400847A9420008E0B58DF8070006480D
:1042B0000068C16911F0400FFBD003480DF1070100
:1042C0000122FEF773FC8CBD1C000020DFF830C01B
:1042D000BCF8042093087C2B88BF7047BCF80230E0
:1042E0000CEB03018871581C4FF4FA71B0FBF1F329
:1042F00003FB1100ACF80200501CACF8040070473E
:10430000F40000244FF04070E1EE100A7047000006
:10431000000001020304010203040607080901006A
:1043200002000400060008000A000C001000200033
:1043300040008000000100006843000800000020E9
:10434000180000000803000880430008180000203F
:1043500098040000240300088043000800000024A3
:10436000F004000024030008010000001000000019
:10437000000000000090D0030090D0030000000077
:04000005080002CD20
:00000001FF
